{
    "_format": "hh-sol-artifact-1",
    "contractName": "Lido",
    "sourceName": "contracts/0.4.24/Lido.sol",
    "abi": [
        {
            "constant": false,
            "inputs": [],
            "name": "resume",
            "outputs": [],
            "payable": false,
            "stateMutability": "nonpayable",
            "type": "function"
        },
        {
            "constant": true,
            "inputs": [],
            "name": "name",
            "outputs": [
                {
                    "name": "",
                    "type": "string"
                }
            ],
            "payable": false,
            "stateMutability": "pure",
            "type": "function"
        },
        {
            "constant": false,
            "inputs": [],
            "name": "stop",
            "outputs": [],
            "payable": false,
            "stateMutability": "nonpayable",
            "type": "function"
        },
        {
            "constant": true,
            "inputs": [],
            "name": "hasInitialized",
            "outputs": [
                {
                    "name": "",
                    "type": "bool"
                }
            ],
            "payable": false,
            "stateMutability": "view",
            "type": "function"
        },
        {
            "constant": true,
            "inputs": [],
            "name": "poolFee",
            "outputs": [
                {
                    "name": "depositFee",
                    "type": "uint256"
                },
                {
                    "name": "withdrawFee",
                    "type": "uint256"
                }
            ],
            "payable": false,
            "stateMutability": "view",
            "type": "function"
        },
        {
            "constant": false,
            "inputs": [
                {
                    "name": "_spender",
                    "type": "address"
                },
                {
                    "name": "_amount",
                    "type": "uint256"
                }
            ],
            "name": "approve",
            "outputs": [
                {
                    "name": "",
                    "type": "bool"
                }
            ],
            "payable": false,
            "stateMutability": "nonpayable",
            "type": "function"
        },
        {
            "constant": true,
            "inputs": [],
            "name": "getDepositFee",
            "outputs": [
                {
                    "name": "",
                    "type": "uint256"
                }
            ],
            "payable": false,
            "stateMutability": "view",
            "type": "function"
        },
        {
            "constant": true,
            "inputs": [],
            "name": "STAKING_CONTROL_ROLE",
            "outputs": [
                {
                    "name": "",
                    "type": "bytes32"
                }
            ],
            "payable": false,
            "stateMutability": "view",
            "type": "function"
        },
        {
            "constant": true,
            "inputs": [],
            "name": "getWithdrawFee",
            "outputs": [
                {
                    "name": "",
                    "type": "uint256"
                }
            ],
            "payable": false,
            "stateMutability": "view",
            "type": "function"
        },
        {
            "constant": true,
            "inputs": [],
            "name": "totalSupply",
            "outputs": [
                {
                    "name": "",
                    "type": "uint256"
                }
            ],
            "payable": false,
            "stateMutability": "view",
            "type": "function"
        },
        {
            "constant": true,
            "inputs": [
                {
                    "name": "_ethAmount",
                    "type": "uint256"
                }
            ],
            "name": "getSharesByPooledEth",
            "outputs": [
                {
                    "name": "",
                    "type": "uint256"
                }
            ],
            "payable": false,
            "stateMutability": "view",
            "type": "function"
        },
        {
            "constant": true,
            "inputs": [],
            "name": "isStakingPaused",
            "outputs": [
                {
                    "name": "",
                    "type": "bool"
                }
            ],
            "payable": false,
            "stateMutability": "view",
            "type": "function"
        },
        {
            "constant": false,
            "inputs": [
                {
                    "name": "_sender",
                    "type": "address"
                },
                {
                    "name": "_recipient",
                    "type": "address"
                },
                {
                    "name": "_amount",
                    "type": "uint256"
                }
            ],
            "name": "transferFrom",
            "outputs": [
                {
                    "name": "",
                    "type": "bool"
                }
            ],
            "payable": false,
            "stateMutability": "nonpayable",
            "type": "function"
        },
        {
            "constant": true,
            "inputs": [
                {
                    "name": "_script",
                    "type": "bytes"
                }
            ],
            "name": "getEVMScriptExecutor",
            "outputs": [
                {
                    "name": "",
                    "type": "address"
                }
            ],
            "payable": false,
            "stateMutability": "view",
            "type": "function"
        },
        {
            "constant": false,
            "inputs": [
                {
                    "name": "_maxStakeLimit",
                    "type": "uint256"
                },
                {
                    "name": "_stakeLimitIncreasePerBlock",
                    "type": "uint256"
                }
            ],
            "name": "setStakingLimit",
            "outputs": [],
            "payable": false,
            "stateMutability": "nonpayable",
            "type": "function"
        },
        {
            "constant": true,
            "inputs": [],
            "name": "RESUME_ROLE",
            "outputs": [
                {
                    "name": "",
                    "type": "bytes32"
                }
            ],
            "payable": false,
            "stateMutability": "view",
            "type": "function"
        },
        {
            "constant": false,
            "inputs": [
                {
                    "name": "_lidoLocator",
                    "type": "address"
                },
                {
                    "name": "_eip712StETH",
                    "type": "address"
                }
            ],
            "name": "finalizeUpgrade_v2",
            "outputs": [],
            "payable": false,
            "stateMutability": "nonpayable",
            "type": "function"
        },
        {
            "constant": true,
            "inputs": [],
            "name": "decimals",
            "outputs": [
                {
                    "name": "",
                    "type": "uint8"
                }
            ],
            "payable": false,
            "stateMutability": "pure",
            "type": "function"
        },
        {
            "constant": true,
            "inputs": [],
            "name": "getRecoveryVault",
            "outputs": [
                {
                    "name": "",
                    "type": "address"
                }
            ],
            "payable": false,
            "stateMutability": "view",
            "type": "function"
        },
        {
            "constant": true,
            "inputs": [],
            "name": "DOMAIN_SEPARATOR",
            "outputs": [
                {
                    "name": "",
                    "type": "bytes32"
                }
            ],
            "payable": false,
            "stateMutability": "view",
            "type": "function"
        },
        {
            "constant": true,
            "inputs": [],
            "name": "getTotalPooledEther",
            "outputs": [
                {
                    "name": "",
                    "type": "uint256"
                }
            ],
            "payable": false,
            "stateMutability": "view",
            "type": "function"
        },
        {
            "constant": false,
            "inputs": [
                {
                    "name": "_newDepositedValidators",
                    "type": "uint256"
                }
            ],
            "name": "unsafeChangeDepositedValidators",
            "outputs": [],
            "payable": false,
            "stateMutability": "nonpayable",
            "type": "function"
        },
        {
            "constant": true,
            "inputs": [],
            "name": "PAUSE_ROLE",
            "outputs": [
                {
                    "name": "",
                    "type": "bytes32"
                }
            ],
            "payable": false,
            "stateMutability": "view",
            "type": "function"
        },
        {
            "constant": false,
            "inputs": [
                {
                    "name": "_spender",
                    "type": "address"
                },
                {
                    "name": "_addedValue",
                    "type": "uint256"
                }
            ],
            "name": "increaseAllowance",
            "outputs": [
                {
                    "name": "",
                    "type": "bool"
                }
            ],
            "payable": false,
            "stateMutability": "nonpayable",
            "type": "function"
        },
        {
            "constant": true,
            "inputs": [],
            "name": "getTreasury",
            "outputs": [
                {
                    "name": "",
                    "type": "address"
                }
            ],
            "payable": false,
            "stateMutability": "view",
            "type": "function"
        },
        {
            "constant": true,
            "inputs": [],
            "name": "isStopped",
            "outputs": [
                {
                    "name": "",
                    "type": "bool"
                }
            ],
            "payable": false,
            "stateMutability": "view",
            "type": "function"
        },
        {
            "constant": true,
            "inputs": [],
            "name": "getBufferedEther",
            "outputs": [
                {
                    "name": "",
                    "type": "uint256"
                }
            ],
            "payable": false,
            "stateMutability": "view",
            "type": "function"
        },
        {
            "constant": false,
            "inputs": [
                {
                    "name": "_lidoLocator",
                    "type": "address"
                },
                {
                    "name": "_eip712StETH",
                    "type": "address"
                }
            ],
            "name": "initialize",
            "outputs": [],
            "payable": true,
            "stateMutability": "payable",
            "type": "function"
        },
        {
            "constant": false,
            "inputs": [],
            "name": "receiveELRewards",
            "outputs": [],
            "payable": true,
            "stateMutability": "payable",
            "type": "function"
        },
        {
            "constant": true,
            "inputs": [],
            "name": "getWithdrawalCredentials",
            "outputs": [
                {
                    "name": "",
                    "type": "bytes32"
                }
            ],
            "payable": false,
            "stateMutability": "view",
            "type": "function"
        },
        {
            "constant": true,
            "inputs": [],
            "name": "getCurrentStakeLimit",
            "outputs": [
                {
                    "name": "",
                    "type": "uint256"
                }
            ],
            "payable": false,
            "stateMutability": "view",
            "type": "function"
        },
        {
            "constant": true,
            "inputs": [],
            "name": "getStakeLimitFullInfo",
            "outputs": [
                {
                    "name": "isStakingPaused",
                    "type": "bool"
                },
                {
                    "name": "isStakingLimitSet",
                    "type": "bool"
                },
                {
                    "name": "currentStakeLimit",
                    "type": "uint256"
                },
                {
                    "name": "maxStakeLimit",
                    "type": "uint256"
                },
                {
                    "name": "maxStakeLimitGrowthBlocks",
                    "type": "uint256"
                },
                {
                    "name": "prevStakeLimit",
                    "type": "uint256"
                },
                {
                    "name": "prevStakeBlockNumber",
                    "type": "uint256"
                }
            ],
            "payable": false,
            "stateMutability": "view",
            "type": "function"
        },
        {
            "constant": false,
            "inputs": [
                {
                    "name": "_depositFee",
                    "type": "uint256"
                },
                {
                    "name": "_withdrawFee",
                    "type": "uint256"
                }
            ],
            "name": "setStakingFee",
            "outputs": [],
            "payable": false,
            "stateMutability": "nonpayable",
            "type": "function"
        },
        {
            "constant": false,
            "inputs": [
                {
                    "name": "_sender",
                    "type": "address"
                },
                {
                    "name": "_recipient",
                    "type": "address"
                },
                {
                    "name": "_sharesAmount",
                    "type": "uint256"
                }
            ],
            "name": "transferSharesFrom",
            "outputs": [
                {
                    "name": "",
                    "type": "uint256"
                }
            ],
            "payable": false,
            "stateMutability": "nonpayable",
            "type": "function"
        },
        {
            "constant": true,
            "inputs": [
                {
                    "name": "_account",
                    "type": "address"
                }
            ],
            "name": "balanceOf",
            "outputs": [
                {
                    "name": "",
                    "type": "uint256"
                }
            ],
            "payable": false,
            "stateMutability": "view",
            "type": "function"
        },
        {
            "constant": false,
            "inputs": [],
            "name": "resumeStaking",
            "outputs": [],
            "payable": false,
            "stateMutability": "nonpayable",
            "type": "function"
        },
        {
            "constant": true,
            "inputs": [],
            "name": "getFeeDistribution",
            "outputs": [
                {
                    "name": "treasuryFeeBasisPoints",
                    "type": "uint16"
                },
                {
                    "name": "insuranceFeeBasisPoints",
                    "type": "uint16"
                },
                {
                    "name": "operatorsFeeBasisPoints",
                    "type": "uint16"
                }
            ],
            "payable": false,
            "stateMutability": "view",
            "type": "function"
        },
        {
            "constant": false,
            "inputs": [],
            "name": "receiveWithdrawals",
            "outputs": [],
            "payable": true,
            "stateMutability": "payable",
            "type": "function"
        },
        {
            "constant": true,
            "inputs": [
                {
                    "name": "_sharesAmount",
                    "type": "uint256"
                }
            ],
            "name": "getPooledEthByShares",
            "outputs": [
                {
                    "name": "",
                    "type": "uint256"
                }
            ],
            "payable": false,
            "stateMutability": "view",
            "type": "function"
        },
        {
            "constant": true,
            "inputs": [
                {
                    "name": "token",
                    "type": "address"
                }
            ],
            "name": "allowRecoverability",
            "outputs": [
                {
                    "name": "",
                    "type": "bool"
                }
            ],
            "payable": false,
            "stateMutability": "view",
            "type": "function"
        },
        {
            "constant": true,
            "inputs": [
                {
                    "name": "owner",
                    "type": "address"
                }
            ],
            "name": "nonces",
            "outputs": [
                {
                    "name": "",
                    "type": "uint256"
                }
            ],
            "payable": false,
            "stateMutability": "view",
            "type": "function"
        },
        {
            "constant": true,
            "inputs": [],
            "name": "appId",
            "outputs": [
                {
                    "name": "",
                    "type": "bytes32"
                }
            ],
            "payable": false,
            "stateMutability": "view",
            "type": "function"
        },
        {
            "constant": true,
            "inputs": [],
            "name": "getOracle",
            "outputs": [
                {
                    "name": "",
                    "type": "address"
                }
            ],
            "payable": false,
            "stateMutability": "view",
            "type": "function"
        },
        {
            "constant": true,
            "inputs": [],
            "name": "eip712Domain",
            "outputs": [
                {
                    "name": "name",
                    "type": "string"
                },
                {
                    "name": "version",
                    "type": "string"
                },
                {
                    "name": "chainId",
                    "type": "uint256"
                },
                {
                    "name": "verifyingContract",
                    "type": "address"
                }
            ],
            "payable": false,
            "stateMutability": "view",
            "type": "function"
        },
        {
            "constant": true,
            "inputs": [],
            "name": "getContractVersion",
            "outputs": [
                {
                    "name": "",
                    "type": "uint256"
                }
            ],
            "payable": false,
            "stateMutability": "view",
            "type": "function"
        },
        {
            "constant": true,
            "inputs": [],
            "name": "getInitializationBlock",
            "outputs": [
                {
                    "name": "",
                    "type": "uint256"
                }
            ],
            "payable": false,
            "stateMutability": "view",
            "type": "function"
        },
        {
            "constant": false,
            "inputs": [
                {
                    "name": "_recipient",
                    "type": "address"
                },
                {
                    "name": "_sharesAmount",
                    "type": "uint256"
                }
            ],
            "name": "transferShares",
            "outputs": [
                {
                    "name": "",
                    "type": "uint256"
                }
            ],
            "payable": false,
            "stateMutability": "nonpayable",
            "type": "function"
        },
        {
            "constant": true,
            "inputs": [],
            "name": "symbol",
            "outputs": [
                {
                    "name": "",
                    "type": "string"
                }
            ],
            "payable": false,
            "stateMutability": "pure",
            "type": "function"
        },
        {
            "constant": true,
            "inputs": [],
            "name": "getEIP712StETH",
            "outputs": [
                {
                    "name": "",
                    "type": "address"
                }
            ],
            "payable": false,
            "stateMutability": "view",
            "type": "function"
        },
        {
            "constant": false,
            "inputs": [
                {
                    "name": "",
                    "type": "address"
                }
            ],
            "name": "transferToVault",
            "outputs": [],
            "payable": false,
            "stateMutability": "nonpayable",
            "type": "function"
        },
        {
            "constant": true,
            "inputs": [
                {
                    "name": "_sender",
                    "type": "address"
                },
                {
                    "name": "_role",
                    "type": "bytes32"
                },
                {
                    "name": "_params",
                    "type": "uint256[]"
                }
            ],
            "name": "canPerform",
            "outputs": [
                {
                    "name": "",
                    "type": "bool"
                }
            ],
            "payable": false,
            "stateMutability": "view",
            "type": "function"
        },
        {
            "constant": false,
            "inputs": [
                {
                    "name": "_referral",
                    "type": "address"
                }
            ],
            "name": "submit",
            "outputs": [
                {
                    "name": "",
                    "type": "uint256"
                }
            ],
            "payable": true,
            "stateMutability": "payable",
            "type": "function"
        },
        {
            "constant": false,
            "inputs": [
                {
                    "name": "_spender",
                    "type": "address"
                },
                {
                    "name": "_subtractedValue",
                    "type": "uint256"
                }
            ],
            "name": "decreaseAllowance",
            "outputs": [
                {
                    "name": "",
                    "type": "bool"
                }
            ],
            "payable": false,
            "stateMutability": "nonpayable",
            "type": "function"
        },
        {
            "constant": true,
            "inputs": [],
            "name": "getEVMScriptRegistry",
            "outputs": [
                {
                    "name": "",
                    "type": "address"
                }
            ],
            "payable": false,
            "stateMutability": "view",
            "type": "function"
        },
        {
            "constant": false,
            "inputs": [
                {
                    "name": "_recipient",
                    "type": "address"
                },
                {
                    "name": "_amount",
                    "type": "uint256"
                }
            ],
            "name": "transfer",
            "outputs": [
                {
                    "name": "",
                    "type": "bool"
                }
            ],
            "payable": false,
            "stateMutability": "nonpayable",
            "type": "function"
        },
        {
            "constant": false,
            "inputs": [
                {
                    "name": "_maxDepositsCount",
                    "type": "uint256"
                },
                {
                    "name": "_stakingModuleId",
                    "type": "uint256"
                },
                {
                    "name": "_depositCalldata",
                    "type": "bytes"
                }
            ],
            "name": "deposit",
            "outputs": [],
            "payable": false,
            "stateMutability": "nonpayable",
            "type": "function"
        },
        {
            "constant": true,
            "inputs": [],
            "name": "UNSAFE_CHANGE_DEPOSITED_VALIDATORS_ROLE",
            "outputs": [
                {
                    "name": "",
                    "type": "bytes32"
                }
            ],
            "payable": false,
            "stateMutability": "view",
            "type": "function"
        },
        {
            "constant": true,
            "inputs": [],
            "name": "getBeaconStat",
            "outputs": [
                {
                    "name": "depositedValidators",
                    "type": "uint256"
                },
                {
                    "name": "beaconValidators",
                    "type": "uint256"
                },
                {
                    "name": "beaconBalance",
                    "type": "uint256"
                }
            ],
            "payable": false,
            "stateMutability": "view",
            "type": "function"
        },
        {
            "constant": false,
            "inputs": [],
            "name": "removeStakingLimit",
            "outputs": [],
            "payable": false,
            "stateMutability": "nonpayable",
            "type": "function"
        },
        {
            "constant": false,
            "inputs": [
                {
                    "name": "_reportTimestamp",
                    "type": "uint256"
                },
                {
                    "name": "_timeElapsed",
                    "type": "uint256"
                },
                {
                    "name": "_clValidators",
                    "type": "uint256"
                },
                {
                    "name": "_clBalance",
                    "type": "uint256"
                },
                {
                    "name": "_withdrawalVaultBalance",
                    "type": "uint256"
                },
                {
                    "name": "_elRewardsVaultBalance",
                    "type": "uint256"
                },
                {
                    "name": "_sharesRequestedToBurn",
                    "type": "uint256"
                },
                {
                    "name": "_withdrawalFinalizationBatches",
                    "type": "uint256[]"
                },
                {
                    "name": "_simulatedShareRate",
                    "type": "uint256"
                }
            ],
            "name": "handleOracleReport",
            "outputs": [
                {
                    "name": "postRebaseAmounts",
                    "type": "uint256[4]"
                }
            ],
            "payable": false,
            "stateMutability": "nonpayable",
            "type": "function"
        },
        {
            "constant": true,
            "inputs": [],
            "name": "getFee",
            "outputs": [
                {
                    "name": "totalFee",
                    "type": "uint16"
                }
            ],
            "payable": false,
            "stateMutability": "view",
            "type": "function"
        },
        {
            "constant": true,
            "inputs": [],
            "name": "kernel",
            "outputs": [
                {
                    "name": "",
                    "type": "address"
                }
            ],
            "payable": false,
            "stateMutability": "view",
            "type": "function"
        },
        {
            "constant": true,
            "inputs": [],
            "name": "getTotalShares",
            "outputs": [
                {
                    "name": "",
                    "type": "uint256"
                }
            ],
            "payable": false,
            "stateMutability": "view",
            "type": "function"
        },
        {
            "constant": false,
            "inputs": [
                {
                    "name": "_owner",
                    "type": "address"
                },
                {
                    "name": "_spender",
                    "type": "address"
                },
                {
                    "name": "_value",
                    "type": "uint256"
                },
                {
                    "name": "_deadline",
                    "type": "uint256"
                },
                {
                    "name": "_v",
                    "type": "uint8"
                },
                {
                    "name": "_r",
                    "type": "bytes32"
                },
                {
                    "name": "_s",
                    "type": "bytes32"
                }
            ],
            "name": "permit",
            "outputs": [],
            "payable": false,
            "stateMutability": "nonpayable",
            "type": "function"
        },
        {
            "constant": true,
            "inputs": [
                {
                    "name": "_owner",
                    "type": "address"
                },
                {
                    "name": "_spender",
                    "type": "address"
                }
            ],
            "name": "allowance",
            "outputs": [
                {
                    "name": "",
                    "type": "uint256"
                }
            ],
            "payable": false,
            "stateMutability": "view",
            "type": "function"
        },
        {
            "constant": true,
            "inputs": [],
            "name": "isPetrified",
            "outputs": [
                {
                    "name": "",
                    "type": "bool"
                }
            ],
            "payable": false,
            "stateMutability": "view",
            "type": "function"
        },
        {
            "constant": true,
            "inputs": [],
            "name": "getLidoLocator",
            "outputs": [
                {
                    "name": "",
                    "type": "address"
                }
            ],
            "payable": false,
            "stateMutability": "view",
            "type": "function"
        },
        {
            "constant": true,
            "inputs": [],
            "name": "canDeposit",
            "outputs": [
                {
                    "name": "",
                    "type": "bool"
                }
            ],
            "payable": false,
            "stateMutability": "view",
            "type": "function"
        },
        {
            "constant": true,
            "inputs": [],
            "name": "STAKING_PAUSE_ROLE",
            "outputs": [
                {
                    "name": "",
                    "type": "bytes32"
                }
            ],
            "payable": false,
            "stateMutability": "view",
            "type": "function"
        },
        {
            "constant": true,
            "inputs": [],
            "name": "getDepositableEther",
            "outputs": [
                {
                    "name": "",
                    "type": "uint256"
                }
            ],
            "payable": false,
            "stateMutability": "view",
            "type": "function"
        },
        {
            "constant": true,
            "inputs": [
                {
                    "name": "_account",
                    "type": "address"
                }
            ],
            "name": "sharesOf",
            "outputs": [
                {
                    "name": "",
                    "type": "uint256"
                }
            ],
            "payable": false,
            "stateMutability": "view",
            "type": "function"
        },
        {
            "constant": false,
            "inputs": [],
            "name": "pauseStaking",
            "outputs": [],
            "payable": false,
            "stateMutability": "nonpayable",
            "type": "function"
        },
        {
            "constant": true,
            "inputs": [],
            "name": "getTotalELRewardsCollected",
            "outputs": [
                {
                    "name": "",
                    "type": "uint256"
                }
            ],
            "payable": false,
            "stateMutability": "view",
            "type": "function"
        },
        {
            "payable": true,
            "stateMutability": "payable",
            "type": "fallback"
        },
        {
            "anonymous": false,
            "inputs": [],
            "name": "StakingPaused",
            "type": "event"
        },
        {
            "anonymous": false,
            "inputs": [],
            "name": "StakingResumed",
            "type": "event"
        },
        {
            "anonymous": false,
            "inputs": [
                {
                    "indexed": false,
                    "name": "maxStakeLimit",
                    "type": "uint256"
                },
                {
                    "indexed": false,
                    "name": "stakeLimitIncreasePerBlock",
                    "type": "uint256"
                }
            ],
            "name": "StakingLimitSet",
            "type": "event"
        },
        {
            "anonymous": false,
            "inputs": [],
            "name": "StakingLimitRemoved",
            "type": "event"
        },
        {
            "anonymous": false,
            "inputs": [
                {
                    "indexed": true,
                    "name": "reportTimestamp",
                    "type": "uint256"
                },
                {
                    "indexed": false,
                    "name": "preCLValidators",
                    "type": "uint256"
                },
                {
                    "indexed": false,
                    "name": "postCLValidators",
                    "type": "uint256"
                }
            ],
            "name": "CLValidatorsUpdated",
            "type": "event"
        },
        {
            "anonymous": false,
            "inputs": [
                {
                    "indexed": false,
                    "name": "depositedValidators",
                    "type": "uint256"
                }
            ],
            "name": "DepositedValidatorsChanged",
            "type": "event"
        },
        {
            "anonymous": false,
            "inputs": [
                {
                    "indexed": true,
                    "name": "reportTimestamp",
                    "type": "uint256"
                },
                {
                    "indexed": false,
                    "name": "preCLBalance",
                    "type": "uint256"
                },
                {
                    "indexed": false,
                    "name": "postCLBalance",
                    "type": "uint256"
                },
                {
                    "indexed": false,
                    "name": "withdrawalsWithdrawn",
                    "type": "uint256"
                },
                {
                    "indexed": false,
                    "name": "executionLayerRewardsWithdrawn",
                    "type": "uint256"
                },
                {
                    "indexed": false,
                    "name": "postBufferedEther",
                    "type": "uint256"
                }
            ],
            "name": "ETHDistributed",
            "type": "event"
        },
        {
            "anonymous": false,
            "inputs": [
                {
                    "indexed": true,
                    "name": "reportTimestamp",
                    "type": "uint256"
                },
                {
                    "indexed": false,
                    "name": "timeElapsed",
                    "type": "uint256"
                },
                {
                    "indexed": false,
                    "name": "preTotalShares",
                    "type": "uint256"
                },
                {
                    "indexed": false,
                    "name": "preTotalEther",
                    "type": "uint256"
                },
                {
                    "indexed": false,
                    "name": "postTotalShares",
                    "type": "uint256"
                },
                {
                    "indexed": false,
                    "name": "postTotalEther",
                    "type": "uint256"
                },
                {
                    "indexed": false,
                    "name": "sharesMintedAsFees",
                    "type": "uint256"
                }
            ],
            "name": "TokenRebased",
            "type": "event"
        },
        {
            "anonymous": false,
            "inputs": [
                {
                    "indexed": false,
                    "name": "lidoLocator",
                    "type": "address"
                }
            ],
            "name": "LidoLocatorSet",
            "type": "event"
        },
        {
            "anonymous": false,
            "inputs": [
                {
                    "indexed": false,
                    "name": "amount",
                    "type": "uint256"
                }
            ],
            "name": "ELRewardsReceived",
            "type": "event"
        },
        {
            "anonymous": false,
            "inputs": [
                {
                    "indexed": false,
                    "name": "amount",
                    "type": "uint256"
                }
            ],
            "name": "WithdrawalsReceived",
            "type": "event"
        },
        {
            "anonymous": false,
            "inputs": [
                {
                    "indexed": true,
                    "name": "sender",
                    "type": "address"
                },
                {
                    "indexed": false,
                    "name": "amount",
                    "type": "uint256"
                },
                {
                    "indexed": false,
                    "name": "referral",
                    "type": "address"
                }
            ],
            "name": "Submitted",
            "type": "event"
        },
        {
            "anonymous": false,
            "inputs": [
                {
                    "indexed": false,
                    "name": "amount",
                    "type": "uint256"
                }
            ],
            "name": "Unbuffered",
            "type": "event"
        },
        {
            "anonymous": false,
            "inputs": [
                {
                    "indexed": true,
                    "name": "executor",
                    "type": "address"
                },
                {
                    "indexed": false,
                    "name": "script",
                    "type": "bytes"
                },
                {
                    "indexed": false,
                    "name": "input",
                    "type": "bytes"
                },
                {
                    "indexed": false,
                    "name": "returnData",
                    "type": "bytes"
                }
            ],
            "name": "ScriptResult",
            "type": "event"
        },
        {
            "anonymous": false,
            "inputs": [
                {
                    "indexed": true,
                    "name": "vault",
                    "type": "address"
                },
                {
                    "indexed": true,
                    "name": "token",
                    "type": "address"
                },
                {
                    "indexed": false,
                    "name": "amount",
                    "type": "uint256"
                }
            ],
            "name": "RecoverToVault",
            "type": "event"
        },
        {
            "anonymous": false,
            "inputs": [
                {
                    "indexed": false,
                    "name": "eip712StETH",
                    "type": "address"
                }
            ],
            "name": "EIP712StETHInitialized",
            "type": "event"
        },
        {
            "anonymous": false,
            "inputs": [
                {
                    "indexed": true,
                    "name": "from",
                    "type": "address"
                },
                {
                    "indexed": true,
                    "name": "to",
                    "type": "address"
                },
                {
                    "indexed": false,
                    "name": "sharesValue",
                    "type": "uint256"
                }
            ],
            "name": "TransferShares",
            "type": "event"
        },
        {
            "anonymous": false,
            "inputs": [
                {
                    "indexed": true,
                    "name": "account",
                    "type": "address"
                },
                {
                    "indexed": false,
                    "name": "preRebaseTokenAmount",
                    "type": "uint256"
                },
                {
                    "indexed": false,
                    "name": "postRebaseTokenAmount",
                    "type": "uint256"
                },
                {
                    "indexed": false,
                    "name": "sharesAmount",
                    "type": "uint256"
                }
            ],
            "name": "SharesBurnt",
            "type": "event"
        },
        {
            "anonymous": false,
            "inputs": [],
            "name": "Stopped",
            "type": "event"
        },
        {
            "anonymous": false,
            "inputs": [],
            "name": "Resumed",
            "type": "event"
        },
        {
            "anonymous": false,
            "inputs": [
                {
                    "indexed": true,
                    "name": "from",
                    "type": "address"
                },
                {
                    "indexed": true,
                    "name": "to",
                    "type": "address"
                },
                {
                    "indexed": false,
                    "name": "value",
                    "type": "uint256"
                }
            ],
            "name": "Transfer",
            "type": "event"
        },
        {
            "anonymous": false,
            "inputs": [
                {
                    "indexed": true,
                    "name": "owner",
                    "type": "address"
                },
                {
                    "indexed": true,
                    "name": "spender",
                    "type": "address"
                },
                {
                    "indexed": false,
                    "name": "value",
                    "type": "uint256"
                }
            ],
            "name": "Approval",
            "type": "event"
        },
        {
            "anonymous": false,
            "inputs": [
                {
                    "indexed": false,
                    "name": "version",
                    "type": "uint256"
                }
            ],
            "name": "ContractVersionSet",
            "type": "event"
        }
    ],
    "bytecode": "0x60806040526200003e7f4dd0f6662ba1d6b081f08b350f5e9a6a7b15cf586926ba66f753594928fa64a660001962000054602090811b62003a4417901c565b6200004e6200005860201b60201c565b6200026b565b9055565b620000686200015a60201b60201c565b60408051808201909152601881527f494e49545f414c52454144595f494e495449414c495a454400000000000000006020820152901562000144576040517f08c379a00000000000000000000000000000000000000000000000000000000081526004018080602001828103825283818151815260200191508051906020019080838360005b8381101562000108578181015183820152602001620000ee565b50505050905090810190601f168015620001365780820380516001836020036101000a031916815260200191505b509250505060405180910390fd5b50620001586000196200018d60201b60201c565b565b60006200018860008051602062005f9283398151915260001b600019166200026760201b62003a8c1760201c565b905090565b6200019d6200015a60201b60201c565b60408051808201909152601881527f494e49545f414c52454144595f494e495449414c495a45440000000000000000602082015290156200023c576040517f08c379a00000000000000000000000000000000000000000000000000000000081526004018080602001828103825283818151815260200191508051906020019080838360008381101562000108578181015183820152602001620000ee565b506200026460008051602062005f928339815191528262000054602090811b62003a4417901c565b50565b5490565b615d17806200027b6000396000f30060806040526004361061033c5760003560e01c63ffffffff168063046f7da21461039f57806306fdde03146103b657806307da68f5146104405780630803fac014610455578063089fe6aa1461047e578063095ea7b3146104ac5780630de705b5146104d0578063136dd43c146104f75780631540aa891461050c57806318160ddd1461052157806319208451146105365780631ea7ca891461054e57806323b872dd146105635780632914b9bd1461058d5780632cb5f784146106025780632de03aa11461061d5780632f85e57c14610632578063313ce5671461065957806332f0a3b5146106845780633644e5151461069957806337cfdaca1461052157806338998624146106ae578063389ed267146106c657806339509351146106db5780633b19e84a146106ff5780633f683b6a1461071457806347b714e014610729578063485cc9551461073e5780634ad509b2146107585780635639671514610760578063609c4c6c14610775578063665b4b0b1461078a5780636a30da51146107d95780636d780459146107f457806370a082311461081e5780637475f9131461083f578063752f77f11461085457806378ffcfe21461088f5780637a28fb88146108975780637e7db6e1146108af5780637ecebe00146108d057806380afdea8146108f1578063833b1fce1461090657806384b0196e1461091b5780638aa1043514610a235780638b3dd74914610a385780638fcb4e5b14610a4d57806395d89b4114610a715780639861f8e514610a865780639d4941d814610a9b578063a1658fad14610abc578063a1903eab14610b23578063a457c2d714610b37578063a479e50814610b5b578063a9059cbb14610b70578063aa0b7db714610b94578063ad1394e914610bbc578063ae2e353814610bd1578063b3320d9a14610c04578063bac3f3c514610c19578063ced72f8714610c91578063d4aae0c414610cbd578063d5002f2e14610cd2578063d505accf14610ce7578063dd62ed3e14610d20578063de4796ed14610d47578063e654ff1714610d5c578063e78a587514610d71578063eb85262f14610d86578063f2cfa87d14610d9b578063f5eb42dc14610db0578063f999c50614610dd1578063fa64ebac14610de6575b3615610392576040805160e560020a62461bcd02815260206004820152600e60248201527f4e4f4e5f454d5054595f44415441000000000000000000000000000000000000604482015290519081900360640190fd5b61039c6000610dfb565b50005b3480156103ab57600080fd5b506103b4611070565b005b3480156103c257600080fd5b506103cb6110ab565b6040805160208082528351818301528351919283929083019185019080838360005b838110156104055781810151838201526020016103ed565b50505050905090810190601f1680156104325780820380516001836020036101000a031916815260200191505b509250505060405180910390f35b34801561044c57600080fd5b506103b46110e2565b34801561046157600080fd5b5061046a61111b565b604080519115158252519081900360200190f35b34801561048a57600080fd5b50610493611144565b6040805192835260208301919091528051918290030190f35b3480156104b857600080fd5b5061046a600160a060020a036004351660243561114d565b3480156104dc57600080fd5b506104e5611163565b60408051918252519081900360200190f35b34801561050357600080fd5b506104e5611169565b34801561051857600080fd5b506104e561117b565b34801561052d57600080fd5b506104e5611181565b34801561054257600080fd5b506104e5600435611190565b34801561055a57600080fd5b5061046a6111c9565b34801561056f57600080fd5b5061046a600160a060020a03600435811690602435166044356111ea565b34801561059957600080fd5b506040805160206004803580820135601f81018490048402850184019095528484526105e694369492936024939284019190819084018382808284375094975061120c9650505050505050565b60408051600160a060020a039092168252519081900360200190f35b34801561060e57600080fd5b506103b46004356024356112ef565b34801561062957600080fd5b506104e5611371565b34801561063e57600080fd5b506103b4600160a060020a0360043581169060243516611395565b34801561066557600080fd5b5061066e61152c565b6040805160ff9092168252519081900360200190f35b34801561069057600080fd5b506105e6611531565b3480156106a557600080fd5b506104e56115a6565b3480156106ba57600080fd5b506103b4600435611607565b3480156106d257600080fd5b506104e5611684565b3480156106e757600080fd5b5061046a600160a060020a03600435166024356116a8565b34801561070b57600080fd5b506105e66116e9565b34801561072057600080fd5b5061046a6116f3565b34801561073557600080fd5b506104e5611712565b6103b4600160a060020a036004358116906024351661171c565b6103b4611810565b34801561076c57600080fd5b506104e5611903565b34801561078157600080fd5b506104e5611947565b34801561079657600080fd5b5061079f611968565b6040805197151588529515156020880152868601949094526060860192909252608085015260a084015260c0830152519081900360e00190f35b3480156107e557600080fd5b506103b46004356024356119f9565b34801561080057600080fd5b506104e5600160a060020a0360043581169060243516604435611a96565b34801561082a57600080fd5b506104e5600160a060020a0360043516611ad2565b34801561084b57600080fd5b506103b4611ae5565b34801561086057600080fd5b50610869611b5a565b6040805161ffff9485168152928416602084015292168183015290519081900360600190f35b6103b4611d2f565b3480156108a357600080fd5b506104e5600435611de6565b3480156108bb57600080fd5b5061046a600160a060020a0360043516611dfe565b3480156108dc57600080fd5b506104e5600160a060020a0360043516611e04565b3480156108fd57600080fd5b506104e5611e1f565b34801561091257600080fd5b506105e6611e4a565b34801561092757600080fd5b50610930611e8e565b60408051908101839052600160a060020a038216606082015260808082528551908201528451819060208083019160a084019189019080838360005b8381101561098457818101518382015260200161096c565b50505050905090810190601f1680156109b15780820380516001836020036101000a031916815260200191505b50838103825286518152865160209182019188019080838360005b838110156109e45781810151838201526020016109cc565b50505050905090810190601f168015610a115780820380516001836020036101000a031916815260200191505b50965050505050505060405180910390f35b348015610a2f57600080fd5b506104e5611fdd565b348015610a4457600080fd5b506104e5612008565b348015610a5957600080fd5b506104e5600160a060020a0360043516602435612033565b348015610a7d57600080fd5b506103cb612063565b348015610a9257600080fd5b506105e661209a565b348015610aa757600080fd5b506103b4600160a060020a03600435166120c5565b348015610ac857600080fd5b50604080516020600460443581810135838102808601850190965280855261046a958335600160a060020a03169560248035963696956064959394920192918291850190849080828437509497506121159650505050505050565b6104e5600160a060020a0360043516612260565b348015610b4357600080fd5b5061046a600160a060020a036004351660243561226b565b348015610b6757600080fd5b506105e66122fc565b348015610b7c57600080fd5b5061046a600160a060020a03600435166024356123b1565b348015610ba057600080fd5b506103b4600480359060248035916044359182019101356123be565b348015610bc857600080fd5b506104e561272e565b348015610bdd57600080fd5b50610be6612752565b60408051938452602084019290925282820152519081900360600190f35b348015610c1057600080fd5b506103b46127a6565b348015610c2557600080fd5b50610c596004803590602480359160443591606435916084359160a4359160c4359160e4359081019101356101043561280a565b6040518082608080838360005b83811015610c7e578181015183820152602001610c66565b5050505090500191505060405180910390f35b348015610c9d57600080fd5b50610ca661289e565b6040805161ffff9092168252519081900360200190f35b348015610cc957600080fd5b506105e66128e2565b348015610cde57600080fd5b506104e561290d565b348015610cf357600080fd5b506103b4600160a060020a036004358116906024351660443560643560ff6084351660a43560c435612917565b348015610d2c57600080fd5b506104e5600160a060020a0360043581169060243516612b62565b348015610d5357600080fd5b5061046a612b8d565b348015610d6857600080fd5b506105e6612ba0565b348015610d7d57600080fd5b5061046a612bcb565b348015610d9257600080fd5b506104e5612c4b565b348015610da757600080fd5b506104e5612c6f565b348015610dbc57600080fd5b506104e5600160a060020a0360043516612d07565b348015610ddd57600080fd5b506103b4612d12565b348015610df257600080fd5b506104e5612d3b565b6000806000806000610e0b615b23565b600080341515610e65576040805160e560020a62461bcd02815260206004820152600c60248201527f5a45524f5f4445504f5349540000000000000000000000000000000000000000604482015290519081900360640190fd5b6003549650610e726116e9565b9550670de0b6b3a7640000348802049450348590039350610ea0600080516020615ccc833981519152612d66565b9250610eab83612db9565b15610f00576040805160e560020a62461bcd02815260206004820152600e60248201527f5354414b494e475f504155534544000000000000000000000000000000000000604482015290519081900360640190fd5b610f0983612dc4565b15610fa157610f1783612dd6565b915081841115610f71576040805160e560020a62461bcd02815260206004820152600b60248201527f5354414b455f4c494d4954000000000000000000000000000000000000000000604482015290519081900360640190fd5b610fa1610f868486850363ffffffff612e6216565b600080516020615ccc8339815191529063ffffffff612ea616565b610faa84611190565b90506000851115610fed57604051600160a060020a0387169086156108fc029087906000818181858888f19350505050158015610feb573d6000803e3d6000fd5b505b610ff73382612f01565b5061101861101385611007612feb565b9063ffffffff61301616565b6130a4565b60408051348152600160a060020a038b166020820152815133927f96a25c8ce0baabc1fdefd93e9ed25d8e092a3332f3aa9a41722b5697231d1d1a928290030190a261106433826130d7565b98975050505050505050565b6110997f2fc10cc8ae19568712f7a176fb4978616a610650813c9d05326c34abb62749c76130ec565b6110a161315e565b6110a96131b0565b565b60408051808201909152601181527f4c6971756964207374616b656420504c53000000000000000000000000000000602082015290565b61110b7f139c2898040ef16910dc9f44dc697df79363da767d8bc92f2e310312b816e46d6130ec565b611113613206565b6110a9613258565b600080611126612008565b9050801580159061113e57508061113b6132a2565b10155b91505090565b60035460045482565b600061115a3384846132a6565b50600192915050565b60035490565b600080516020615c6c83398151915281565b60045490565b600061118b6133c8565b905090565b60006111c161119d6133c8565b6111b56111a86133f7565b859063ffffffff61342216565b9063ffffffff6134cd16565b90505b919050565b600061118b6111e5600080516020615ccc833981519152612d66565b612db9565b60006111f784338461356d565b611202848484613607565b5060019392505050565b60006112166122fc565b600160a060020a03166304bf2a7f836040518263ffffffff1660e01b81526004018080602001828103825283818151815260200191508051906020019080838360005b83811015611271578181015183820152602001611259565b50505050905090810190601f16801561129e5780820380516001836020036101000a031916815260200191505b5092505050602060405180830381600087803b1580156112bd57600080fd5b505af11580156112d1573d6000803e3d6000fd5b505050506040513d60208110156112e757600080fd5b505192915050565b611306600080516020615c6c8339815191526130ec565b611332610f868383611325600080516020615ccc833981519152612d66565b919063ffffffff61362b16565b604080518381526020810183905281517fce9fddf6179affa1ea7bf36d80a6bf0284e0f3b91f4b2fa6eea2af923e7fac2d929181900390910190a15050565b7f2fc10cc8ae19568712f7a176fb4978616a610650813c9d05326c34abb62749c781565b61139f600061384f565b6113a761111b565b15156113fd576040805160e560020a62461bcd02815260206004820152600f60248201527f4e4f545f494e495449414c495a45440000000000000000000000000000000000604482015290519081900360640190fd5b600160a060020a038216151561145d576040805160e560020a62461bcd02815260206004820152601960248201527f4c49444f5f4c4f4341544f525f5a45524f5f4144445245535300000000000000604482015290519081900360640190fd5b600160a060020a03811615156114bd576040805160e560020a62461bcd02815260206004820152601960248201527f4549503731325f53544554485f5a45524f5f4144445245535300000000000000604482015290519081900360640190fd5b6114c861dead6138ad565b151561151e576040805160e560020a62461bcd02815260206004820152601560248201527f494e495449414c5f484f4c4445525f4558495354530000000000000000000000604482015290519081900360640190fd5b61152882826138c8565b5050565b601290565b600061153b6128e2565b600160a060020a03166332f0a3b56040518163ffffffff1660e01b8152600401602060405180830381600087803b15801561157557600080fd5b505af1158015611589573d6000803e3d6000fd5b505050506040513d602081101561159f57600080fd5b5051905090565b60006115b061209a565b600160a060020a031663b8f120b3306040518263ffffffff1660e01b81526004018082600160a060020a0316600160a060020a03168152602001915050602060405180830381600087803b15801561157557600080fd5b6116307fe6dc5d79630c61871e99d341ad72c5a052bed2fc8c79e5a4480a7cd31117576c6130ec565b61164e600080516020615c4c8339815191528263ffffffff613a4416565b6040805182815290517fe0aacfc334457703148118055ec794ac17654c6f918d29638ba3b18003cee5ff9181900360200190a150565b7f139c2898040ef16910dc9f44dc697df79363da767d8bc92f2e310312b816e46d81565b336000818152600160209081526040808320600160a060020a0387168452909152812054909161115a9185906116e4908663ffffffff61301616565b6132a6565b600061118b613a48565b600061170c600080516020615c2c833981519152613a8c565b15905090565b600061118b612feb565b611724612008565b60408051808201909152601881527f494e49545f414c52454144595f494e495449414c495a45440000000000000000602082015290156117e55760405160e560020a62461bcd0281526004018080602001828103825283818151815260200191508051906020019080838360005b838110156117aa578181015183820152602001611792565b50505050905090810190601f1680156117d75780820380516001836020036101000a031916815260200191505b509250505060405180910390fd5b506117ee61315e565b6117f66131b0565b6117fe613a90565b61180882826138c8565b611528613af7565b611818612ba0565b600160a060020a031663e441d25f6040518163ffffffff1660e01b8152600401602060405180830381600087803b15801561185257600080fd5b505af1158015611866573d6000803e3d6000fd5b505050506040513d602081101561187c57600080fd5b5051600160a060020a0316331461189257600080fd5b6118ce6118a134611007612d3b565b7fafe016039542d12eec0183bb0b1ffc2ca45b027126a494672fba4154ee77facb9063ffffffff613a4416565b6040805134815290517fd27f9b0c98bdee27044afa149eadcd2047d6399cb6613a45c5b87e6aca76e6b59181900360200190a1565b600061190d613bbd565b600160a060020a031663563967156040518163ffffffff1660e01b8152600401602060405180830381600087803b15801561157557600080fd5b600061118b611963600080516020615ccc833981519152612d66565b613c01565b600080600080600080600061197b615b23565b611992600080516020615ccc833981519152612d66565b905061199d81612db9565b97506119a881612dc4565b96506119b381613c01565b955080606001516001606060020a03169450806040015163ffffffff16935080602001516001606060020a03169250806000015163ffffffff1691505090919293949596565b611a10600080516020615c6c8339815191526130ec565b60008210158015611a22575060008110155b1515611a78576040805160e560020a62461bcd02815260206004820152600d60248201527f496e76616c696420466565202500000000000000000000000000000000000000604482015290519081900360640190fd5b60408051808201909152828152602001819052600391909155600455565b600080611aa283611de6565b9050611aaf85338361356d565b611aba858585613c3a565b611ac685858386613e3e565b8091505b509392505050565b60006111c1611ae0836138ad565b611de6565b611afc600080516020615c6c8339815191526130ec565b611b0461111b565b15156110a1576040805160e560020a62461bcd02815260206004820152600f60248201527f4e4f545f494e495449414c495a45440000000000000000000000000000000000604482015290519081900360640190fd5b600080600080600080600080611b6e613bbd565b945084600160a060020a031663271662ec6040518163ffffffff1660e01b8152600401602060405180830381600087803b158015611bab57600080fd5b505af1158015611bbf573d6000803e3d6000fd5b505050506040513d6020811015611bd557600080fd5b5051604080517f9fbb7bae0000000000000000000000000000000000000000000000000000000081529051919550600160a060020a03871691639fbb7bae916004808201926020929091908290030181600087803b158015611c3657600080fd5b505af1158015611c4a573d6000803e3d6000fd5b505050506040513d6020811015611c6057600080fd5b5051604080517fefcdcc0e000000000000000000000000000000000000000000000000000000008152815161ffff9093169550600160a060020a0388169263efcdcc0e926004808401939192918290030181600087803b158015611cc357600080fd5b505af1158015611cd7573d6000803e3d6000fd5b505050506040513d6040811015611ced57600080fd5b5080516020909101516000985061ffff918216935016905082848302811515611d1257fe5b04975082848202811515611d2257fe5b0495505050505050909192565b611d37612ba0565b600160a060020a03166369d421486040518163ffffffff1660e01b8152600401602060405180830381600087803b158015611d7157600080fd5b505af1158015611d85573d6000803e3d6000fd5b505050506040513d6020811015611d9b57600080fd5b5051600160a060020a03163314611db157600080fd5b6040805134815290517f6e5086f7e1ab04bd826e77faae35b1bcfe31bd144623361a40ea4af51670b1c39181900360200190a1565b60006111c1611df36133f7565b6111b56111a86133c8565b50600190565b600160a060020a031660009081526002602052604090205490565b600061118b7fd625496217aa6a3453eecb9c3489dc5a53e6c67b444329ea2b2cbc9ff547639b613a8c565b6000611e54612ba0565b600160a060020a031663996107aa6040518163ffffffff1660e01b8152600401602060405180830381600087803b15801561157557600080fd5b606080600080611e9c61209a565b600160a060020a031663f4409319306040518263ffffffff1660e01b81526004018082600160a060020a0316600160a060020a03168152602001915050600060405180830381600087803b158015611ef357600080fd5b505af1158015611f07573d6000803e3d6000fd5b505050506040513d6000823e601f3d908101601f191682016040526080811015611f3057600080fd5b810190808051640100000000811115611f4857600080fd5b82016020810184811115611f5b57600080fd5b8151640100000000811182820187101715611f7557600080fd5b50509291906020018051640100000000811115611f9157600080fd5b82016020810184811115611fa457600080fd5b8151640100000000811182820187101715611fbe57600080fd5b5050602082015160409092015194985096509450919250505090919293565b600061118b7f4dd0f6662ba1d6b081f08b350f5e9a6a7b15cf586926ba66f753594928fa64a6613a8c565b600061118b7febb05b386a8d34882b8711d156f463690983dc47815980fb82aeeff1aa43579e613a8c565b600080612041338585613c3a565b61204a83611de6565b905061205833858386613e3e565b8091505b5092915050565b60408051808201909152600581527f7374504c53000000000000000000000000000000000000000000000000000000602082015290565b600061118b7f42b2d95e1ce15ce63bf9a8d9f6312cf44b23415c977ffa3b884333422af8941c613a8c565b6040805160e560020a62461bcd02815260206004820152600d60248201527f4e4f545f535550504f5254454400000000000000000000000000000000000000604482015290519081900360640190fd5b60008061212061111b565b151561212f5760009150611aca565b6121376128e2565b9050600160a060020a03811615156121525760009150611aca565b80600160a060020a031663fdef910686308761216d88613ede565b60405163ffffffff861660e01b8152600160a060020a03808616600483019081529085166024830152604482018490526080606483019081528351608484015283519192909160a490910190602085019080838360005b838110156121dc5781810151838201526020016121c4565b50505050905090810190601f1680156122095780820380516001836020036101000a031916815260200191505b5095505050505050602060405180830381600087803b15801561222b57600080fd5b505af115801561223f573d6000803e3d6000fd5b505050506040513d602081101561225557600080fd5b505195945050505050565b60006111c182610dfb565b336000908152600160209081526040808320600160a060020a0386168452909152812054828110156122e7576040805160e560020a62461bcd02815260206004820152601460248201527f414c4c4f57414e43455f42454c4f575f5a45524f000000000000000000000000604482015290519081900360640190fd5b61120233856116e4848763ffffffff613ee816565b6000806123076128e2565b604080517fbe00bbd80000000000000000000000000000000000000000000000000000000081527fd6f028ca0e8edb4a8c9757ca4fdccab25fa1e0317da1188108f7d2dee14902fb60048201527fddbcfd564f642ab5627cf68b9b7d374fb4f8a36e941a75d89c87998cef03bd6160248201529051600160a060020a03929092169163be00bbd8916044808201926020929091908290030181600087803b1580156112bd57600080fd5b600061115a338484613607565b60008060008060006123ce612ba0565b945084600160a060020a031663472c17766040518163ffffffff1660e01b8152600401602060405180830381600087803b15801561240b57600080fd5b505af115801561241f573d6000803e3d6000fd5b505050506040513d602081101561243557600080fd5b5051600160a060020a03163314612496576040805160e560020a62461bcd02815260206004820152601360248201527f4150505f415554485f44534d5f4641494c454400000000000000000000000000604482015290519081900360640190fd5b61249e612bcb565b15156124f4576040805160e560020a62461bcd02815260206004820152600f60248201527f43414e5f4e4f545f4445504f5349540000000000000000000000000000000000604482015290519081900360640190fd5b6124fc613bbd565b93506125888985600160a060020a03166319c64b798b61251a612c6f565b6040518363ffffffff1660e01b81526004018083815260200182815260200192505050602060405180830381600087803b15801561255757600080fd5b505af115801561256b573d6000803e3d6000fd5b505050506040513d602081101561258157600080fd5b5051613f7c565b9250600083111561269a576125ae836a1a784379d99db42000000063ffffffff61342216565b91506125f86125cb836125bf612feb565b9063ffffffff613ee816565b7fed310af23f61f96daefbcd140b306c0bdbf8c178398299741687b90e794772b09063ffffffff613a4416565b6040805183815290517f76a397bea5768d4fca97ef47792796e35f98dc81b16c1de84e28a818e1f971089181900360200190a161264683611007600080516020615c4c833981519152613a8c565b9050612666600080516020615c4c8339815191528263ffffffff613a4416565b6040805182815290517fe0aacfc334457703148118055ec794ac17654c6f918d29638ba3b18003cee5ff9181900360200190a15b83600160a060020a031663aa0b7db783858b8b8b6040518663ffffffff1660e01b8152600401808581526020018481526020018060200182810382528484828181526020019250808284378201915050955050505050506000604051808303818588803b15801561270a57600080fd5b505af115801561271e573d6000803e3d6000fd5b5050505050505050505050505050565b7fe6dc5d79630c61871e99d341ad72c5a052bed2fc8c79e5a4480a7cd31117576c81565b6000808061276d600080516020615c4c833981519152613a8c565b9250612786600080516020615c8c833981519152613a8c565b915061279f600080516020615cac833981519152613a8c565b9050909192565b6127bd600080516020615c6c8339815191526130ec565b6127df610f866127da600080516020615ccc833981519152612d66565b613f94565b6040517f9b2a687c198898fcc32a33bbc610d478f177a73ab7352023e6cc1de5bf12a3df90600090a1565b612812615b4a565b61281a613fa7565b61288f610120604051908101604052808d81526020018c81526020018b81526020018a8152602001898152602001888152602001878152602001868680806020026020016040519081016040528093929190818152602001838360200280828437505050928452505050602001849052614014565b9b9a5050505050505050505050565b60006128a8613bbd565b600160a060020a0316639fbb7bae6040518163ffffffff1660e01b8152600401602060405180830381600087803b15801561157557600080fd5b600061118b7f4172f0f7d2289153072b0a6ca36959e0cbe2efc3afe50fc81636caa96338137b613a8c565b600061118b6133f7565b60008042861015612972576040805160e560020a62461bcd02815260206004820152601060248201527f444541444c494e455f4558504952454400000000000000000000000000000000604482015290519081900360640190fd5b7f6e71edae12b1b97f4d1f60370fef10105fa2faae0126114a169c64845d6126c989898961299f83614517565b60408051602080820197909752600160a060020a0395861681830152939094166060840152608083019190915260a082015260c08082018a90528251808303909101815260e090910191829052805190928291908401908083835b60208310612a195780518252601f1990920191602091820191016129fa565b6001836020036101000a03801982511681845116808217855250505050505090500191505060405180910390209150612a5061209a565b604080517f804e5eb3000000000000000000000000000000000000000000000000000000008152306004820152602481018590529051600160a060020a03929092169163804e5eb3916044808201926020929091908290030181600087803b158015612abb57600080fd5b505af1158015612acf573d6000803e3d6000fd5b505050506040513d6020811015612ae557600080fd5b50519050612af68982878787614561565b1515612b4c576040805160e560020a62461bcd02815260206004820152601160248201527f494e56414c49445f5349474e4154555245000000000000000000000000000000604482015290519081900360640190fd5b612b578989896132a6565b505050505050505050565b600160a060020a03918216600090815260016020908152604080832093909416825291909152205490565b6000600019612b9a612008565b14905090565b600061118b7f9ef78dff90f100ea94042bd00ccb978430524befc391d3e510b5f55ff3166df7613a8c565b6000612bd5614726565b600160a060020a0316632b95b7816040518163ffffffff1660e01b8152600401602060405180830381600087803b158015612c0f57600080fd5b505af1158015612c23573d6000803e3d6000fd5b505050506040513d6020811015612c3957600080fd5b505115801561118b575061170c6116f3565b7f84ea57490227bc2be925c684e2a367071d69890b629590198f4125a018eb1de881565b6000806000612c7c612feb565b9150612c86614726565b600160a060020a031663d0fb84e86040518163ffffffff1660e01b8152600401602060405180830381600087803b158015612cc057600080fd5b505af1158015612cd4573d6000803e3d6000fd5b505050506040513d6020811015612cea57600080fd5b50519050808211612cfc576000612d00565b8082035b9250505090565b60006111c1826138ad565b6111137f84ea57490227bc2be925c684e2a367071d69890b629590198f4125a018eb1de86130ec565b600061118b7fafe016039542d12eec0183bb0b1ffc2ca45b027126a494672fba4154ee77facb613a8c565b612d6e615b23565b6000612d7983613a8c565b63ffffffff600082901c811684526001606060020a03602083811c821690860152608083901c909116604085015260a09190911c16606083015250919050565b5163ffffffff161590565b606001516001606060020a0316151590565b600080600080846040015163ffffffff166000141515612e1f57846040015163ffffffff1685606001516001606060020a0316811515612e1257fe5b046001606060020a031692505b846000015163ffffffff164303915082820285602001516001606060020a0316019050612e598186606001516001606060020a031661476a565b95945050505050565b612e6a615b23565b6001606060020a03821115612e7b57fe5b825163ffffffff161515612e8b57fe5b506001606060020a031660208201524363ffffffff16815290565b61152860a082606001516001606060020a0316901b6080836040015163ffffffff16901b602084602001516001606060020a0316901b6000856000015163ffffffff16901b1717178360001916613a4490919063ffffffff16565b6000600160a060020a0383161515612f63576040805160e560020a62461bcd02815260206004820152601160248201527f4d494e545f544f5f5a45524f5f41444452000000000000000000000000000000604482015290519081900360640190fd5b612f6f826110076133f7565b9050612fa17fe3b4b636e601189b5f4c6742edf2538ac12bb61ed03e6da26949d69838fa447e8263ffffffff613a4416565b600160a060020a038316600090815260208190526040902054612fca908363ffffffff61301616565b600160a060020a039093166000908152602081905260409020929092555090565b600061118b7fed310af23f61f96daefbcd140b306c0bdbf8c178398299741687b90e794772b0613a8c565b60408051808201909152601181527f4d4154485f4144445f4f564552464c4f5700000000000000000000000000000060208201526000908383019084821015611aca5760405160e560020a62461bcd028152600401808060200182810382528381815181526020019150805190602001908083836000838110156117aa578181015183820152602001611792565b6130d47fed310af23f61f96daefbcd140b306c0bdbf8c178398299741687b90e794772b08263ffffffff613a4416565b50565b6115286000836130e684611de6565b84613e3e565b6040805160008152602081019091526131089033908390612115565b15156130d4576040805160e560020a62461bcd02815260206004820152600f60248201527f4150505f415554485f4641494c45440000000000000000000000000000000000604482015290519081900360640190fd5b61316661477b565b613185600080516020615c2c833981519152600163ffffffff613a4416565b6040517f62451d457bc659158be6e6247f56ec1df424a5c7597f71c20c2bc44e0965c8f990600090a1565b6131db610f8660006131cf600080516020615ccc833981519152612d66565b9063ffffffff6147e716565b6040517fedaeeae9aed70c4545d3ab0065713261c9cee8d6cf5c8b07f52f0a65fd91efda90600090a1565b61320e613fa7565b61322d600080516020615c2c833981519152600063ffffffff613a4416565b6040517f7acc84e34091ae817647a4c49116f5cc07f319078ba80f8f5fde37ea7e25cbd690600090a1565b613277610f8660016131cf600080516020615ccc833981519152612d66565b6040517f26d1807b479eaba249c1214b82e4b65bbb0cc73ee8a17901324b1ef1b5904e4990600090a1565b4390565b600160a060020a0383161515613306576040805160e560020a62461bcd02815260206004820152601660248201527f415050524f56455f46524f4d5f5a45524f5f4144445200000000000000000000604482015290519081900360640190fd5b600160a060020a0382161515613366576040805160e560020a62461bcd02815260206004820152601460248201527f415050524f56455f544f5f5a45524f5f41444452000000000000000000000000604482015290519081900360640190fd5b600160a060020a03808416600081815260016020908152604080832094871680845294825291829020859055815185815291517f8c5be1e5ebec7d5bd14f71427d1e84f3dd0314c0f7b2291e5b200ac8c7c3b9259281900390910190a3505050565b600061118b6133d561480c565b6110076133ef600080516020615cac833981519152613a8c565b611007612feb565b600061118b7fe3b4b636e601189b5f4c6742edf2538ac12bb61ed03e6da26949d69838fa447e613a8c565b600080831515613435576000915061205c565b5082820282848281151561344557fe5b60408051808201909152601181527f4d4154485f4d554c5f4f564552464c4f5700000000000000000000000000000060208201529291900414611aca5760405160e560020a62461bcd028152600401808060200182810382528381815181526020019150805190602001908083836000838110156117aa578181015183820152602001611792565b60408051808201909152600d81527f4d4154485f4449565f5a45524f00000000000000000000000000000000000000602082015260009081908184116135585760405160e560020a62461bcd028152600401808060200182810382528381815181526020019150805190602001908083836000838110156117aa578181015183820152602001611792565b50828481151561356457fe5b04949350505050565b600160a060020a03808416600090815260016020908152604080832093861683529290522054600019811461360157818110156135f4576040805160e560020a62461bcd02815260206004820152601260248201527f414c4c4f57414e43455f45584345454445440000000000000000000000000000604482015290519081900360640190fd5b61360184848484036132a6565b50505050565b600061361282611190565b905061361f848483613c3a565b61360184848484613e3e565b613633615b23565b82151561368a576040805160e560020a62461bcd02815260206004820152601460248201527f5a45524f5f4d41585f5354414b455f4c494d4954000000000000000000000000604482015290519081900360640190fd5b6001606060020a038311156136e9576040805160e560020a62461bcd02815260206004820152601960248201527f544f4f5f4c415247455f4d41585f5354414b455f4c494d495400000000000000604482015290519081900360640190fd5b81831015613741576040805160e560020a62461bcd02815260206004820152601860248201527f544f4f5f4c415247455f4c494d49545f494e4352454153450000000000000000604482015290519081900360640190fd5b81158061375d575063ffffffff828481151561375957fe5b0411155b15156137b3576040805160e560020a62461bcd02815260206004820152601860248201527f544f4f5f534d414c4c5f4c494d49545f494e4352454153450000000000000000604482015290519081900360640190fd5b835163ffffffff1615806137d2575060608401516001606060020a0316155b806137e9575083602001516001606060020a031683105b156137fe576001606060020a03831660208501525b81151561380c576000613819565b818381151561381757fe5b045b63ffffffff90811660408601526001606060020a0384166060860152845116156138475763ffffffff431684525b509192915050565b613857611fdd565b81146130d4576040805160e560020a62461bcd02815260206004820152601b60248201527f554e45585045435445445f434f4e54524143545f56455253494f4e0000000000604482015290519081900360640190fd5b600160a060020a031660009081526020819052604090205490565b6138d26002614869565b6139027f9ef78dff90f100ea94042bd00ccb978430524befc391d3e510b5f55ff3166df78363ffffffff613a4416565b61390b816148cf565b613a0482600160a060020a03166337d5fe996040518163ffffffff1660e01b8152600401602060405180830381600087803b15801561394957600080fd5b505af115801561395d573d6000803e3d6000fd5b505050506040513d602081101561397357600080fd5b5051604080517f27810b6e0000000000000000000000000000000000000000000000000000000081529051600160a060020a038616916327810b6e9160048083019260209291908290030181600087803b1580156139d057600080fd5b505af11580156139e4573d6000803e3d6000fd5b505050506040513d60208110156139fa57600080fd5b50516000196132a6565b60408051600160a060020a038416815290517f61f9416d3c29deb4e424342445a2b132738430becd9fa275e11297c90668b22e9181900360200190a15050565b9055565b6000613a52612ba0565b600160a060020a03166361d027b36040518163ffffffff1660e01b8152600401602060405180830381600087803b15801561157557600080fd5b5490565b3031801515613a9b57fe5b613aa36133f7565b15156130d457613ab2816130a4565b6040805182815260006020820152815161dead927f96a25c8ce0baabc1fdefd93e9ed25d8e092a3332f3aa9a41722b5697231d1d1a928290030190a26130d481614a06565b613aff612008565b60408051808201909152601881527f494e49545f414c52454144595f494e495449414c495a4544000000000000000060208201529015613b845760405160e560020a62461bcd028152600401808060200182810382528381815181526020019150805190602001908083836000838110156117aa578181015183820152602001611792565b506110a9613b906132a2565b7febb05b386a8d34882b8711d156f463690983dc47815980fb82aeeff1aa43579e9063ffffffff613a4416565b6000613bc7612ba0565b600160a060020a031663ef6c064c6040518163ffffffff1660e01b8152600401602060405180830381600087803b15801561157557600080fd5b6000613c0c82612db9565b15613c19575060006111c4565b613c2282612dc4565b1515613c3157506000196111c4565b6111c182612dd6565b6000600160a060020a0384161515613c9c576040805160e560020a62461bcd02815260206004820152601760248201527f5452414e534645525f46524f4d5f5a45524f5f41444452000000000000000000604482015290519081900360640190fd5b600160a060020a0383161515613cfc576040805160e560020a62461bcd02815260206004820152601560248201527f5452414e534645525f544f5f5a45524f5f414444520000000000000000000000604482015290519081900360640190fd5b600160a060020a038316301415613d5d576040805160e560020a62461bcd02815260206004820152601a60248201527f5452414e534645525f544f5f53544554485f434f4e5452414354000000000000604482015290519081900360640190fd5b613d65613fa7565b50600160a060020a03831660009081526020819052604090205480821115613dd7576040805160e560020a62461bcd02815260206004820152601060248201527f42414c414e43455f455843454544454400000000000000000000000000000000604482015290519081900360640190fd5b613de7818363ffffffff613ee816565b600160a060020a038086166000908152602081905260408082209390935590851681522054613e1c908363ffffffff61301616565b600160a060020a03909316600090815260208190526040902092909255505050565b82600160a060020a031684600160a060020a03167fddf252ad1be2c89b69c2b068fc378daa952ba7f163c4a11628f55a4df523b3ef846040518082815260200191505060405180910390a382600160a060020a031684600160a060020a03167f9d9c909296d9c674451c0c24f02cb64981eb3b727f99865939192f880a755dcb836040518082815260200191505060405180910390a350505050565b5490565b8051602002815290565b60408051808201909152601281527f4d4154485f5355425f554e444552464c4f5700000000000000000000000000006020820152600090819084841115613f745760405160e560020a62461bcd028152600401808060200182810382528381815181526020019150805190602001908083836000838110156117aa578181015183820152602001611792565b505050900390565b6000818310613f8b5781613f8d565b825b9392505050565b613f9c615b23565b506000606082015290565b613fbe600080516020615c2c833981519152613a8c565b15156110a9576040805160e560020a62461bcd02815260206004820152601360248201527f434f4e54524143545f49535f53544f5050454400000000000000000000000000604482015290519081900360640190fd5b61401c615b4a565b614024615b69565b61402c615ba5565b60008060008061403a614a1f565b8051909650600160a060020a0316331461409e576040805160e560020a62461bcd02815260206004820152600f60248201527f4150505f415554485f4641494c45440000000000000000000000000000000000604482015290519081900360640190fd5b87514210156140f7576040805160e560020a62461bcd02815260206004820152601860248201527f494e56414c49445f5245504f52545f54494d455354414d500000000000000000604482015290519081900360640190fd5b6140ff6133c8565b604086015261410c6133f7565b6060860152614128600080516020615c8c833981519152613a8c565b808652885160408a015160608b0151614142939190614af0565b6020860152614152868987614c8f565b60e08801515115614203576141678689614d4e565b60a08701819052608087019190915260001015614203578560600151600160a060020a0316634611492887608001518760a001516040518363ffffffff1660e01b81526004018083600160a060020a0316600160a060020a0316815260200182815260200192505050600060405180830381600087803b1580156141ea57600080fd5b505af11580156141fe573d6000803e3d6000fd5b505050505b8560400151600160a060020a031663b8498a398660400151876060015188602001518c606001518d608001518e60a001518f60c001518d608001518e60a001516040518a63ffffffff1660e01b8152600401808a81526020018981526020018881526020018781526020018681526020018581526020018481526020018381526020018281526020019950505050505050505050608060405180830381600087803b1580156142b157600080fd5b505af11580156142c5573d6000803e3d6000fd5b505050506040513d60808110156142db57600080fd5b5080516020820151604083015160609093015160e0808a019190915260c0890193909352918a01516101008b01516080890151929750929550614325928992889288929091614f2d565b87600001517f92dd3cb149a1eebd51fd8c2a3653fd96f30c4ac01d4f850fc16d46abd6c3e92f86602001518a60600151878761435f612feb565b6040805195865260208601949094528484019290925260608401526080830152519081900360a00190a260008560e001511115614410578560600151600160a060020a031663636e6b668660e001516040518263ffffffff1660e01b815260040180828152602001915050600060405180830381600087803b1580156143e457600080fd5b505af11580156143f8573d6000803e3d6000fd5b5050505061440e86606001518660e001516150d8565b505b6144208589606001518686615282565b61010086015260c086015161443890899087906152df565b60e08a0151519193509150156144ee578560400151600160a060020a03166363e56b9f8284886080015161447d8a60c001518b60e00151613ee890919063ffffffff16565b8d61010001516040518663ffffffff1660e01b81526004018086815260200185815260200184815260200183815260200182815260200195505050505050600060405180830381600087803b1580156144d557600080fd5b505af11580156144e9573d6000803e3d6000fd5b505050505b604080516080810182529182526020820192909252908101929092526060820152949350505050565b600160a060020a03811660009081526002602052604090205461454181600163ffffffff61301616565b600160a060020a0390921660009081526002602052604090209190915590565b600060608060006145718961541f565b156146f75760408051602080820189905281830188905260ff8a1660f81b606083015282516041818403018152606183018452608583018c815260a58401948552815160c585015281519197507f1626ba7e00000000000000000000000000000000000000000000000000000000948d9489949293919260e5909101919085019080838360005b838110156146105781810151838201526020016145f8565b50505050905090810190601f16801561463d5780820380516001836020036101000a031916815260200191505b509350505050604051602081830303815290604052907bffffffffffffffffffffffffffffffffffffffffffffffffffffffff19166020820180517bffffffffffffffffffffffffffffffffffffffffffffffffffffffff83818316178352505050509150604051602081016040526020818451602086018d5afa60203d146001821416156146cb57815192505b50507f1626ba7e000000000000000000000000000000000000000000000000000000008114935061471a565b88600160a060020a031661470d89898989615427565b600160a060020a03161493505b50505095945050505050565b6000614730612ba0565b600160a060020a03166337d5fe996040518163ffffffff1660e01b8152600401602060405180830381600087803b15801561157557600080fd5b808210918202600192909203020190565b614792600080516020615c2c833981519152613a8c565b156110a9576040805160e560020a62461bcd02815260206004820152601260248201527f434f4e54524143545f49535f4143544956450000000000000000000000000000604482015290519081900360640190fd5b6147ef615b23565b816147fa57436147fd565b60005b63ffffffff1683525090919050565b60008080614827600080516020615c4c833981519152613a8c565b9150614840600080516020615c8c833981519152613a8c565b90508082101561484c57fe5b612d008183036a1a784379d99db42000000063ffffffff61342216565b6148997f4dd0f6662ba1d6b081f08b350f5e9a6a7b15cf586926ba66f753594928fa64a68263ffffffff613a4416565b6040805182815290517ffddcded6b4f4730c226821172046b48372d3cd963c159701ae1b7c3bcac541bb9181900360200190a150565b600160a060020a038116151561492f576040805160e560020a62461bcd02815260206004820152601060248201527f5a45524f5f454950373132535445544800000000000000000000000000000000604482015290519081900360640190fd5b600061493961209a565b600160a060020a031614614997576040805160e560020a62461bcd02815260206004820152601760248201527f45495037313253544554485f414c52454144595f534554000000000000000000604482015290519081900360640190fd5b6149c77f42b2d95e1ce15ce63bf9a8d9f6312cf44b23415c977ffa3b884333422af8941c8263ffffffff613a4416565b60408051600160a060020a038316815290517fb80a5409082a3729c9fc139f8b41192c40e85252752df2c07caebd613086ca839181900360200190a150565b614a1261dead82612f01565b506130d461dead826130d7565b614a27615b69565b614a2f612ba0565b600160a060020a0316633cbf357e6040518163ffffffff1660e01b815260040160e060405180830381600087803b158015614a6957600080fd5b505af1158015614a7d573d6000803e3d6000fd5b505050506040513d60e0811015614a9357600080fd5b50805160208083015160408085015160608087015160808089015160a0808b015160c09b8c0151600160a060020a039081169c8e019c909c528b16908c01528916908a015287169088015285169086015283169084015216815290565b60008080614b0b600080516020615c4c833981519152613a8c565b915081851115614b65576040805160e560020a62461bcd02815260206004820152601760248201527f5245504f525445445f4d4f52455f4445504f5349544544000000000000000000604482015290519081900360640190fd5b85851015614bbd576040805160e560020a62461bcd02815260206004820152601860248201527f5245504f525445445f4c4553535f56414c494441544f52530000000000000000604482015290519081900360640190fd5b85851115614be357614be3600080516020615c8c8339815191528663ffffffff613a4416565b50848403614bfe600080516020615cac833981519152613a8c565b9250614c2b614c1e826a1a784379d99db42000000063ffffffff61342216565b849063ffffffff61301616565b9250614c4b600080516020615cac8339815191528563ffffffff613a4416565b6040805187815260208101879052815189927f1252331d4f3ee8a9f0a3484c4c2fb059c70a047b5dc5482a3ee6415f742d9f2e928290030190a25050949350505050565b8260400151600160a060020a0316638024cca183602001518360200151856060015186608001518760a001518860c0015188600001518a604001516040518963ffffffff1660e01b81526004018089815260200188815260200187815260200186815260200185815260200184815260200183815260200182815260200198505050505050505050600060405180830381600087803b158015614d3157600080fd5b505af1158015614d45573d6000803e3d6000fd5b50505050505050565b60008060008460800151905080600160a060020a031663b187bd266040518163ffffffff1660e01b8152600401602060405180830381600087803b158015614d9557600080fd5b505af1158015614da9573d6000803e3d6000fd5b505050506040513d6020811015614dbf57600080fd5b50511515614f25578460400151600160a060020a0316636a84f2fd8560e0015160018760e001515103815181101515614df457fe5b9060200190602002015186600001516040518363ffffffff1660e01b81526004018083815260200182815260200192505050600060405180830381600087803b158015614e4057600080fd5b505af1158015614e54573d6000803e3d6000fd5b5050505080600160a060020a031663a52e9c9f8560e001518661010001516040518363ffffffff1660e01b81526004018080602001838152602001828103825284818151815260200191508051906020019060200280838360005b83811015614ec7578181015183820152602001614eaf565b5050505090500193505050506040805180830381600087803b158015614eec57600080fd5b505af1158015614f00573d6000803e3d6000fd5b505050506040513d6040811015614f1657600080fd5b50805160209091015190935091505b509250929050565b6000806000861115614fb0578760200151600160a060020a0316639342c8f4876040518263ffffffff1660e01b815260040180828152602001915050602060405180830381600087803b158015614f8357600080fd5b505af1158015614f97573d6000803e3d6000fd5b505050506040513d6020811015614fad57600080fd5b50505b600087111561501c578760a00151600160a060020a0316633194528a886040518263ffffffff1660e01b815260040180828152602001915050600060405180830381600087803b15801561500357600080fd5b505af1158015615017573d6000803e3d6000fd5b505050505b60008311156150af578760800151915081600160a060020a031663b6013cef8487600189510381518110151561504e57fe5b90602001906020020151876040518463ffffffff1660e01b815260040180838152602001828152602001925050506000604051808303818588803b15801561509557600080fd5b505af11580156150a9573d6000803e3d6000fd5b50505050505b6150c3836125bf896110078a611007612feb565b90506150ce816130a4565b5050505050505050565b6000808080600160a060020a038616151561513d576040805160e560020a62461bcd02815260206004820152601360248201527f4255524e5f46524f4d5f5a45524f5f4144445200000000000000000000000000604482015290519081900360640190fd5b600160a060020a0386166000908152602081905260409020549250828511156151b0576040805160e560020a62461bcd02815260206004820152601060248201527f42414c414e43455f455843454544454400000000000000000000000000000000604482015290519081900360640190fd5b6151b985611de6565b91506151c7856125bf6133f7565b93506151f97fe3b4b636e601189b5f4c6742edf2538ac12bb61ed03e6da26949d69838fa447e8563ffffffff613a4416565b615209838663ffffffff613ee816565b600160a060020a03871660009081526020819052604090205561522b85611de6565b60408051848152602081018390528082018890529051919250600160a060020a038816917f8b2a1e1ad5e0578c3dd82494156e985dade827a87c573b5c1c7716a32162ad649181900360600190a250505092915050565b60008080615296868663ffffffff61301616565b915086602001518211156152d5578660200151820390506152d2876040015188606001516152cd878561301690919063ffffffff16565b615591565b92505b5050949350505050565b6000806152ea6133f7565b91506152f46133c8565b9050600160a060020a038316156153a95782600160a060020a03166389136ec0866000015187602001518760600151886040015187878b61010001516040518863ffffffff1660e01b815260040180888152602001878152602001868152602001858152602001848152602001838152602001828152602001975050505050505050600060405180830381600087803b15801561539057600080fd5b505af11580156153a4573d6000803e3d6000fd5b505050505b84516020808701516060808801516040808a01516101008b0151825195865295850192909252838101919091529082018690526080820185905260a082019290925290517fff08c3ef606d198e316ef5b822193c489965899eb4e3c248cea1a4626c3eda509181900360c00190a2935093915050565b6000903b1190565b6000807f7fffffffffffffffffffffffffffffff5d576e7357a4501ddfe92f46681b20a083821c11156154ca576040805160e560020a62461bcd02815260206004820152602260248201527f45434453413a20696e76616c6964207369676e6174757265202773272076616c60448201527f7565000000000000000000000000000000000000000000000000000000000000606482015290519081900360840190fd5b60408051600080825260208083018085528a905260ff8916838501526060830188905260808301879052925160019360a0808501949193601f19840193928390039091019190865af1158015615524573d6000803e3d6000fd5b5050604051601f190151915050600160a060020a0381161515612e59576040805160e560020a62461bcd02815260206004820152601860248201527f45434453413a20696e76616c6964207369676e61747572650000000000000000604482015290519081900360640190fd5b600061559b615bf2565b600080606060006155aa615780565b94509450600085606001516001606060020a03161115615774576155d4898863ffffffff61301616565b92506156426156126155fc87606001516001606060020a03168a61342290919063ffffffff16565b60808801516125bf90879063ffffffff61342216565b6111b58a61563689606001516001606060020a03168c61342290919063ffffffff16565b9063ffffffff61342216565b955061564e3087612f01565b506156708560000151866040015187606001516001606060020a0316896159dc565b909250905061568d615688878363ffffffff613ee816565b615b02565b83600160a060020a031663af1240978660200151846040518363ffffffff1660e01b8152600401808060200180602001838103835285818151815260200191508051906020019060200280838360005b838110156156f55781810151838201526020016156dd565b50505050905001838103825284818151815260200191508051906020019060200280838360005b8381101561573457818101518382015260200161571c565b50505050905001945050505050600060405180830381600087803b15801561575b57600080fd5b505af115801561576f573d6000803e3d6000fd5b505050505b50505050509392505050565b615788615bf2565b6000615792613bbd565b905080600160a060020a031663ba21ccae6040518163ffffffff1660e01b8152600401600060405180830381600087803b1580156157cf57600080fd5b505af11580156157e3573d6000803e3d6000fd5b505050506040513d6000823e601f3d908101601f1916820160405260a081101561580c57600080fd5b81019080805164010000000081111561582457600080fd5b8201602081018481111561583757600080fd5b815185602082028301116401000000008211171561585457600080fd5b5050929190602001805164010000000081111561587057600080fd5b8201602081018481111561588357600080fd5b81518560208202830111640100000000821117156158a057600080fd5b505092919060200180516401000000008111156158bc57600080fd5b820160208101848111156158cf57600080fd5b81518560208202830111640100000000821117156158ec57600080fd5b505060208083015160409384015160808b01526001606060020a031660608a015291880181905290870193909352505081845251905114615977576040805160e560020a62461bcd02815260206004820152601660248201527f57524f4e475f524543495049454e54535f494e50555400000000000000000000604482015290519081900360640190fd5b604082015151602083015151146159d8576040805160e560020a62461bcd02815260206004820152601660248201527f57524f4e475f4d4f44554c455f4944535f494e50555400000000000000000000604482015290519081900360640190fd5b9091565b606060008060008751604051908082528060200260200182016040528015615a0e578160200160208202803883390190505b5093505b8751821015615af75760008783815181101515615a2b57fe5b906020019060200201516001606060020a03161115615aec57615a79866111b58985815181101515615a5957fe5b6020908102909101015188906001606060020a031663ffffffff61342216565b9050808483815181101515615a8a57fe5b602090810290910101528751615ab89030908a9085908110615aa857fe5b9060200190602002015183613c3a565b615ad98883815181101515615ac957fe5b90602001906020020151826130d7565b615ae9838263ffffffff61301616565b92505b816001019150615a12565b505094509492505050565b6000615b0c613a48565b9050615b19308284613c3a565b61152881836130d7565b60408051608081018252600080825260208201819052918101829052606081019190915290565b6080604051908101604052806004906020820280388339509192915050565b6040805160e081018252600080825260208201819052918101829052606081018290526080810182905260a0810182905260c081019190915290565b610120604051908101604052806000815260200160008152602001600081526020016000815260200160008152602001600081526020016000815260200160008152602001600081525090565b60a06040519081016040528060608152602001606081526020016060815260200160006001606060020a031681526020016000815250905600644132c4ddd5bb6f0655d5fe2870dcec7870e6be4758890f366b83441f9fdecee6e35175eb53fc006520a2a9c3e9711a7c00de6ff2c32dd31df8c5a24cac1b5ca42eee1333c0758ba72be38e728b6dadb32ea767de5b4ddbaea1dae85b1b051f9f70001d82b6ef54e9d3725b46581c3eb9ee3aa02b941b6aa54d678a9ca35b10a66d35f054e68143c18f32c990ed5cb972bb68a68f500cd2dd3a16bbf3686483a3678de4a579be090bed1177e0a24f77cc29d181ac22fd7688aca344d8938015a165627a7a7230582056d0d1076fc8144a08b2d6b059911eac1308f52f73b7649ba9d58d19ea88b1810029ebb05b386a8d34882b8711d156f463690983dc47815980fb82aeeff1aa43579e",
    "linkReferences": {},
    "deployedLinkReferences": {}
}