{
    "_format": "hh-sol-artifact-1",
    "contractName": "LegacyOracle",
    "sourceName": "contracts/0.4.24/oracle/LegacyOracle.sol",
    "abi": [
        {
            "constant": true,
            "inputs": [],
            "name": "hasInitialized",
            "outputs": [
                {
                    "name": "",
                    "type": "bool"
                }
            ],
            "payable": false,
            "stateMutability": "view",
            "type": "function"
        },
        {
            "constant": true,
            "inputs": [],
            "name": "getVersion",
            "outputs": [
                {
                    "name": "",
                    "type": "uint256"
                }
            ],
            "payable": false,
            "stateMutability": "view",
            "type": "function"
        },
        {
            "constant": true,
            "inputs": [
                {
                    "name": "_script",
                    "type": "bytes"
                }
            ],
            "name": "getEVMScriptExecutor",
            "outputs": [
                {
                    "name": "",
                    "type": "address"
                }
            ],
            "payable": false,
            "stateMutability": "view",
            "type": "function"
        },
        {
            "constant": true,
            "inputs": [],
            "name": "getRecoveryVault",
            "outputs": [
                {
                    "name": "",
                    "type": "address"
                }
            ],
            "payable": false,
            "stateMutability": "view",
            "type": "function"
        },
        {
            "constant": false,
            "inputs": [
                {
                    "name": "_lidoLocator",
                    "type": "address"
                },
                {
                    "name": "_accountingOracleConsensusContract",
                    "type": "address"
                }
            ],
            "name": "initialize",
            "outputs": [],
            "payable": false,
            "stateMutability": "nonpayable",
            "type": "function"
        },
        {
            "constant": false,
            "inputs": [
                {
                    "name": "_accountingOracle",
                    "type": "address"
                }
            ],
            "name": "finalizeUpgrade_v4",
            "outputs": [],
            "payable": false,
            "stateMutability": "nonpayable",
            "type": "function"
        },
        {
            "constant": true,
            "inputs": [],
            "name": "getLastCompletedReportDelta",
            "outputs": [
                {
                    "name": "postTotalPooledEther",
                    "type": "uint256"
                },
                {
                    "name": "preTotalPooledEther",
                    "type": "uint256"
                },
                {
                    "name": "timeElapsed",
                    "type": "uint256"
                }
            ],
            "payable": false,
            "stateMutability": "view",
            "type": "function"
        },
        {
            "constant": true,
            "inputs": [],
            "name": "getLido",
            "outputs": [
                {
                    "name": "",
                    "type": "address"
                }
            ],
            "payable": false,
            "stateMutability": "view",
            "type": "function"
        },
        {
            "constant": true,
            "inputs": [],
            "name": "getCurrentFrame",
            "outputs": [
                {
                    "name": "frameEpochId",
                    "type": "uint256"
                },
                {
                    "name": "frameStartTime",
                    "type": "uint256"
                },
                {
                    "name": "frameEndTime",
                    "type": "uint256"
                }
            ],
            "payable": false,
            "stateMutability": "view",
            "type": "function"
        },
        {
            "constant": true,
            "inputs": [
                {
                    "name": "token",
                    "type": "address"
                }
            ],
            "name": "allowRecoverability",
            "outputs": [
                {
                    "name": "",
                    "type": "bool"
                }
            ],
            "payable": false,
            "stateMutability": "view",
            "type": "function"
        },
        {
            "constant": true,
            "inputs": [],
            "name": "appId",
            "outputs": [
                {
                    "name": "",
                    "type": "bytes32"
                }
            ],
            "payable": false,
            "stateMutability": "view",
            "type": "function"
        },
        {
            "constant": false,
            "inputs": [
                {
                    "name": "",
                    "type": "uint256"
                },
                {
                    "name": "timeElapsed",
                    "type": "uint256"
                },
                {
                    "name": "",
                    "type": "uint256"
                },
                {
                    "name": "preTotalEther",
                    "type": "uint256"
                },
                {
                    "name": "postTotalShares",
                    "type": "uint256"
                },
                {
                    "name": "postTotalEther",
                    "type": "uint256"
                },
                {
                    "name": "",
                    "type": "uint256"
                }
            ],
            "name": "handlePostTokenRebase",
            "outputs": [],
            "payable": false,
            "stateMutability": "nonpayable",
            "type": "function"
        },
        {
            "constant": true,
            "inputs": [],
            "name": "getLastCompletedEpochId",
            "outputs": [
                {
                    "name": "",
                    "type": "uint256"
                }
            ],
            "payable": false,
            "stateMutability": "view",
            "type": "function"
        },
        {
            "constant": true,
            "inputs": [],
            "name": "getContractVersion",
            "outputs": [
                {
                    "name": "",
                    "type": "uint256"
                }
            ],
            "payable": false,
            "stateMutability": "view",
            "type": "function"
        },
        {
            "constant": true,
            "inputs": [],
            "name": "getInitializationBlock",
            "outputs": [
                {
                    "name": "",
                    "type": "uint256"
                }
            ],
            "payable": false,
            "stateMutability": "view",
            "type": "function"
        },
        {
            "constant": false,
            "inputs": [
                {
                    "name": "_refSlot",
                    "type": "uint256"
                },
                {
                    "name": "_clBalance",
                    "type": "uint256"
                },
                {
                    "name": "_clValidators",
                    "type": "uint256"
                }
            ],
            "name": "handleConsensusLayerReport",
            "outputs": [],
            "payable": false,
            "stateMutability": "nonpayable",
            "type": "function"
        },
        {
            "constant": false,
            "inputs": [
                {
                    "name": "_token",
                    "type": "address"
                }
            ],
            "name": "transferToVault",
            "outputs": [],
            "payable": false,
            "stateMutability": "nonpayable",
            "type": "function"
        },
        {
            "constant": true,
            "inputs": [],
            "name": "getAccountingOracle",
            "outputs": [
                {
                    "name": "",
                    "type": "address"
                }
            ],
            "payable": false,
            "stateMutability": "view",
            "type": "function"
        },
        {
            "constant": true,
            "inputs": [
                {
                    "name": "_sender",
                    "type": "address"
                },
                {
                    "name": "_role",
                    "type": "bytes32"
                },
                {
                    "name": "_params",
                    "type": "uint256[]"
                }
            ],
            "name": "canPerform",
            "outputs": [
                {
                    "name": "",
                    "type": "bool"
                }
            ],
            "payable": false,
            "stateMutability": "view",
            "type": "function"
        },
        {
            "constant": true,
            "inputs": [],
            "name": "getCurrentEpochId",
            "outputs": [
                {
                    "name": "",
                    "type": "uint256"
                }
            ],
            "payable": false,
            "stateMutability": "view",
            "type": "function"
        },
        {
            "constant": true,
            "inputs": [],
            "name": "getEVMScriptRegistry",
            "outputs": [
                {
                    "name": "",
                    "type": "address"
                }
            ],
            "payable": false,
            "stateMutability": "view",
            "type": "function"
        },
        {
            "constant": true,
            "inputs": [],
            "name": "kernel",
            "outputs": [
                {
                    "name": "",
                    "type": "address"
                }
            ],
            "payable": false,
            "stateMutability": "view",
            "type": "function"
        },
        {
            "constant": true,
            "inputs": [],
            "name": "isPetrified",
            "outputs": [
                {
                    "name": "",
                    "type": "bool"
                }
            ],
            "payable": false,
            "stateMutability": "view",
            "type": "function"
        },
        {
            "constant": true,
            "inputs": [],
            "name": "getBeaconSpec",
            "outputs": [
                {
                    "name": "epochsPerFrame",
                    "type": "uint64"
                },
                {
                    "name": "slotsPerEpoch",
                    "type": "uint64"
                },
                {
                    "name": "secondsPerSlot",
                    "type": "uint64"
                },
                {
                    "name": "genesisTime",
                    "type": "uint64"
                }
            ],
            "payable": false,
            "stateMutability": "view",
            "type": "function"
        },
        {
            "anonymous": false,
            "inputs": [
                {
                    "indexed": false,
                    "name": "epochId",
                    "type": "uint256"
                },
                {
                    "indexed": false,
                    "name": "beaconBalance",
                    "type": "uint128"
                },
                {
                    "indexed": false,
                    "name": "beaconValidators",
                    "type": "uint128"
                }
            ],
            "name": "Completed",
            "type": "event"
        },
        {
            "anonymous": false,
            "inputs": [
                {
                    "indexed": false,
                    "name": "postTotalPooledEther",
                    "type": "uint256"
                },
                {
                    "indexed": false,
                    "name": "preTotalPooledEther",
                    "type": "uint256"
                },
                {
                    "indexed": false,
                    "name": "timeElapsed",
                    "type": "uint256"
                },
                {
                    "indexed": false,
                    "name": "totalShares",
                    "type": "uint256"
                }
            ],
            "name": "PostTotalShares",
            "type": "event"
        },
        {
            "anonymous": false,
            "inputs": [
                {
                    "indexed": true,
                    "name": "executor",
                    "type": "address"
                },
                {
                    "indexed": false,
                    "name": "script",
                    "type": "bytes"
                },
                {
                    "indexed": false,
                    "name": "input",
                    "type": "bytes"
                },
                {
                    "indexed": false,
                    "name": "returnData",
                    "type": "bytes"
                }
            ],
            "name": "ScriptResult",
            "type": "event"
        },
        {
            "anonymous": false,
            "inputs": [
                {
                    "indexed": true,
                    "name": "vault",
                    "type": "address"
                },
                {
                    "indexed": true,
                    "name": "token",
                    "type": "address"
                },
                {
                    "indexed": false,
                    "name": "amount",
                    "type": "uint256"
                }
            ],
            "name": "RecoverToVault",
            "type": "event"
        },
        {
            "anonymous": false,
            "inputs": [
                {
                    "indexed": false,
                    "name": "version",
                    "type": "uint256"
                }
            ],
            "name": "ContractVersionSet",
            "type": "event"
        }
    ],
    "bytecode": "0x60806040526200003e7f4dd0f6662ba1d6b081f08b350f5e9a6a7b15cf586926ba66f753594928fa64a660001962000054602090811b6200153317901c565b6200004e6200005860201b60201c565b6200026b565b9055565b620000686200015a60201b60201c565b60408051808201909152601881527f494e49545f414c52454144595f494e495449414c495a454400000000000000006020820152901562000144576040517f08c379a00000000000000000000000000000000000000000000000000000000081526004018080602001828103825283818151815260200191508051906020019080838360005b8381101562000108578181015183820152602001620000ee565b50505050905090810190601f168015620001365780820380516001836020036101000a031916815260200191505b509250505060405180910390fd5b50620001586000196200018d60201b60201c565b565b6000620001886000805160206200212c83398151915260001b600019166200026760201b6200152f1760201c565b905090565b6200019d6200015a60201b60201c565b60408051808201909152601881527f494e49545f414c52454144595f494e495449414c495a45440000000000000000602082015290156200023c576040517f08c379a00000000000000000000000000000000000000000000000000000000081526004018080602001828103825283818151815260200191508051906020019080838360008381101562000108578181015183820152602001620000ee565b50620002646000805160206200212c8339815191528262000054602090811b6200153317901c565b50565b5490565b611eb1806200027b6000396000f3006080604052600436106101215760003560e01c63ffffffff1680630803fac0146101265780630d8e6e2c1461014f5780632914b9bd1461017657806332f0a3b5146101eb578063485cc955146102005780634a5d23bb14610229578063534649c41461024a5780636a516b471461027d57806372f79b13146102925780637e7db6e1146102a757806380afdea8146102c857806389136ec0146102dd57806389896aef146103075780638aa104351461031c5780638b3dd7491461033157806391d2247c146103465780639d4941d814610364578063a096704c14610385578063a1658fad1461039a578063a29a839f14610401578063a479e50814610416578063d4aae0c41461042b578063de4796ed14610440578063e547c77c14610455575b600080fd5b34801561013257600080fd5b5061013b61049f565b604080519115158252519081900360200190f35b34801561015b57600080fd5b506101646104c8565b60408051918252519081900360200190f35b34801561018257600080fd5b506040805160206004803580820135601f81018490048402850184019095528484526101cf9436949293602493928401919081908401838280828437509497506104d79650505050505050565b60408051600160a060020a039092168252519081900360200190f35b3480156101f757600080fd5b506101cf6105ba565b34801561020c57600080fd5b50610227600160a060020a036004358116906024351661062f565b005b34801561023557600080fd5b50610227600160a060020a036004351661090a565b34801561025657600080fd5b5061025f610af6565b60408051938452602084019290925282820152519081900360600190f35b34801561028957600080fd5b506101cf610b80565b34801561029e57600080fd5b5061025f610bab565b3480156102b357600080fd5b5061013b600160a060020a0360043516610bc3565b3480156102d457600080fd5b50610164610bc9565b3480156102e957600080fd5b5061022760043560243560443560643560843560a43560c435610bf4565b34801561031357600080fd5b50610164610d3b565b34801561032857600080fd5b50610164610d66565b34801561033d57600080fd5b50610164610d91565b34801561035257600080fd5b50610227600435602435604435610dbc565b34801561037057600080fd5b50610227600160a060020a0360043516610ed3565b34801561039157600080fd5b506101cf611162565b3480156103a657600080fd5b50604080516020600460443581810135838102808601850190965280855261013b958335600160a060020a031695602480359636969560649593949201929182918501908490808284375094975061118d9650505050505050565b34801561040d57600080fd5b506101646112da565b34801561042257600080fd5b506101cf61132b565b34801561043757600080fd5b506101cf6113e0565b34801561044c57600080fd5b5061013b61140b565b34801561046157600080fd5b5061046a61141e565b6040805167ffffffffffffffff9586168152938516602085015291841683830152909216606082015290519081900360800190f35b6000806104aa610d91565b905080158015906104c25750806104bf6114ca565b10155b91505090565b60006104d2610d66565b905090565b60006104e161132b565b600160a060020a03166304bf2a7f836040518263ffffffff1660e01b81526004018080602001828103825283818151815260200191508051906020019080838360005b8381101561053c578181015183820152602001610524565b50505050905090810190601f1680156105695780820380516001836020036101000a031916815260200191505b5092505050602060405180830381600087803b15801561058857600080fd5b505af115801561059c573d6000803e3d6000fd5b505050506040513d60208110156105b257600080fd5b505192915050565b60006105c46113e0565b600160a060020a03166332f0a3b56040518163ffffffff1660e01b8152600401602060405180830381600087803b1580156105fe57600080fd5b505af1158015610612573d6000803e3d6000fd5b505050506040513d602081101561062857600080fd5b5051905090565b6000610639610d91565b60408051808201909152601881527f494e49545f414c52454144595f494e495449414c495a45440000000000000000602082015290156106fa5760405160e560020a62461bcd0281526004018080602001828103825283818151815260200191508051906020019080838360005b838110156106bf5781810151838201526020016106a7565b50505050905090810190601f1680156106ec5780820380516001836020036101000a031916815260200191505b509250505060405180910390fd5b5061070560006114ce565b61072e7f75be19a3f314d89bd1f84d30a6c84e2f1cd7afc7b6ca21876564c265113bb7e461152f565b15610783576040805160e560020a62461bcd02815260206004820152601260248201527f57524f4e475f424153455f56455253494f4e0000000000000000000000000000604482015290519081900360640190fd5b600160a060020a03831615156107e3576040805160e560020a62461bcd02815260206004820152601460248201527f5a45524f5f4c4f4341544f525f41444452455353000000000000000000000000604482015290519081900360640190fd5b82905061087d81600160a060020a03166323509a2d6040518163ffffffff1660e01b8152600401602060405180830381600087803b15801561082457600080fd5b505af1158015610838573d6000803e3d6000fd5b505050506040513d602081101561084e57600080fd5b50517ff6978a4f7e200f6d3a24d82d44c48bddabce399a3b8ec42a480ea8a2d5fe6ec59063ffffffff61153316565b6108ec81600160a060020a0316635a2031f96040518163ffffffff1660e01b8152600401602060405180830381600087803b1580156108bb57600080fd5b505af11580156108cf573d6000803e3d6000fd5b505050506040513d60208110156108e557600080fd5b5051611537565b6108fd6108f883611602565b61173f565b610905611947565b505050565b6000610914611e5e565b61091c611e5e565b6109457f75be19a3f314d89bd1f84d30a6c84e2f1cd7afc7b6ca21876564c265113bb7e461152f565b60031461099c576040805160e560020a62461bcd02815260206004820152601260248201527f57524f4e475f424153455f56455253494f4e0000000000000000000000000000604482015290519081900360640190fd5b6109a660006114ce565b83600160a060020a0316638f55b5716040518163ffffffff1660e01b8152600401602060405180830381600087803b1580156109e157600080fd5b505af11580156109f5573d6000803e3d6000fd5b505050506040513d6020811015610a0b57600080fd5b50519250610a1884611537565b610a20611a0f565b9150610a2b83611602565b9050806020015167ffffffffffffffff16826020015167ffffffffffffffff16148015610a735750806040015167ffffffffffffffff16826040015167ffffffffffffffff16145b8015610a9a5750806060015167ffffffffffffffff16826060015167ffffffffffffffff16145b1515610af0576040805160e560020a62461bcd02815260206004820152601560248201527f554e45585045435445445f434841494e5f535045430000000000000000000000604482015290519081900360640190fd5b50505050565b60008080610b237faa8433b13d2b111d4f84f6f374bc7acbe20794944308876aa250fa9a73dc7f5361152f565b9250610b4e7f1043177539af09a67d747435df3ff1155a64cd93a347daaac9132a591442d43e61152f565b9150610b797f8fe323f4ecd3bf0497252a90142003855cc5125cee76a5b5ba5d508c7ec28c3a61152f565b9050909192565b60006104d27ff6978a4f7e200f6d3a24d82d44c48bddabce399a3b8ec42a480ea8a2d5fe6ec561152f565b6000806000610bb8611a75565b925092509250909192565b50600190565b60006104d27fd625496217aa6a3453eecb9c3489dc5a53e6c67b444329ea2b2cbc9ff547639b61152f565b610bfc610b80565b600160a060020a03163314610c5b576040805160e560020a62461bcd02815260206004820152601260248201527f53454e4445525f4e4f545f414c4c4f5745440000000000000000000000000000604482015290519081900360640190fd5b610c8b7f1043177539af09a67d747435df3ff1155a64cd93a347daaac9132a591442d43e8563ffffffff61153316565b610cbb7faa8433b13d2b111d4f84f6f374bc7acbe20794944308876aa250fa9a73dc7f538363ffffffff61153316565b610ceb7f8fe323f4ecd3bf0497252a90142003855cc5125cee76a5b5ba5d508c7ec28c3a8763ffffffff61153316565b60408051838152602081018690528082018890526060810185905290517fdafd48d1eba2a416b2aca45e9ead3ad18b84e868fa6d2e1a3048bfd37ed10a329181900360800190a150505050505050565b60006104d27fdad15c0beecd15610092d84427258e369d2582df22869138b4c5265f049f574c61152f565b60006104d27f4dd0f6662ba1d6b081f08b350f5e9a6a7b15cf586926ba66f753594928fa64a661152f565b60006104d27febb05b386a8d34882b8711d156f463690983dc47815980fb82aeeff1aa43579e61152f565b6000610dc6611162565b600160a060020a03163314610e25576040805160e560020a62461bcd02815260206004820152601260248201527f53454e4445525f4e4f545f414c4c4f5745440000000000000000000000000000604482015290519081900360640190fd5b610e2d611a0f565b6020015167ffffffffffffffff1684600101811515610e4857fe5b049050610e7b7fdad15c0beecd15610092d84427258e369d2582df22869138b4c5265f049f574c8263ffffffff61153316565b604080518281526fffffffffffffffffffffffffffffffff808616602083015284168183015290517f95423529aa0b2867e02676b0bb4766cde576fb31ea77056f683bc236c7c15f9d9181900360600190a150505050565b6000806000610ee184610bc3565b60408051808201909152601281527f5245434f5645525f444953414c4c4f57454400000000000000000000000000006020820152901515610f675760405160e560020a62461bcd028152600401808060200182810382528381815181526020019150805190602001908083836000838110156106bf5781810151838201526020016106a7565b50610f706105ba565b9250610f7b83611b5a565b60408051808201909152601a81527f5245434f5645525f5641554c545f4e4f545f434f4e545241435400000000000060208201529015156110015760405160e560020a62461bcd028152600401808060200182810382528381815181526020019150805190602001908083836000838110156106bf5781810151838201526020016106a7565b50600160a060020a03841615156110525760405130319250600160a060020a0384169083156108fc029084906000818181858888f1935050505015801561104c573d6000803e3d6000fd5b50611111565b508261106d600160a060020a0382163063ffffffff611b8716565b9150611089600160a060020a038216848463ffffffff611c9c16565b60408051808201909152601d81527f5245434f5645525f544f4b454e5f5452414e534645525f4641494c4544000000602082015290151561110f5760405160e560020a62461bcd028152600401808060200182810382528381815181526020019150805190602001908083836000838110156106bf5781810151838201526020016106a7565b505b83600160a060020a031683600160a060020a03167f596caf56044b55fb8c4ca640089bbc2b63cae3e978b851f5745cbb7c5b288e02846040518082815260200191505060405180910390a350505050565b60006104d27fea0b659bb027a76ad14e51fad85cb5d4cedf3fd9dc4531be67b31d6d8725e9c661152f565b60008061119861049f565b15156111a757600091506112d2565b6111af6113e0565b9050600160a060020a03811615156111ca57600091506112d2565b80600160a060020a031663fdef91068630876111e588611d27565b60405163ffffffff861660e01b8152600160a060020a03808616600483019081529085166024830152604482018490526080606483019081528351608484015283519192909160a490910190602085019080838360005b8381101561125457818101518382015260200161123c565b50505050905090810190601f1680156112815780820380516001836020036101000a031916815260200191505b5095505050505050602060405180830381600087803b1580156112a357600080fd5b505af11580156112b7573d6000803e3d6000fd5b505050506040513d60208110156112cd57600080fd5b505191505b509392505050565b60006112e4611e5e565b6112ec611a0f565b9050806040015181602001510267ffffffffffffffff16816060015167ffffffffffffffff1661131a611d31565b0381151561132457fe5b0491505090565b6000806113366113e0565b604080517fbe00bbd80000000000000000000000000000000000000000000000000000000081527fd6f028ca0e8edb4a8c9757ca4fdccab25fa1e0317da1188108f7d2dee14902fb60048201527fddbcfd564f642ab5627cf68b9b7d374fb4f8a36e941a75d89c87998cef03bd6160248201529051600160a060020a03929092169163be00bbd8916044808201926020929091908290030181600087803b15801561058857600080fd5b60006104d27f4172f0f7d2289153072b0a6ca36959e0cbe2efc3afe50fc81636caa96338137b61152f565b6000600019611418610d91565b14905090565b600080600080600061142e611e5e565b611436611d35565b600160a060020a0316636fb1bf666040518163ffffffff1660e01b81526004016040805180830381600087803b15801561146f57600080fd5b505af1158015611483573d6000803e3d6000fd5b505050506040513d604081101561149957600080fd5b506020015195508591506114ab611a0f565b9050806020015194508060400151935080606001519250505090919293565b4390565b6114d6610d66565b811461152c576040805160e560020a62461bcd02815260206004820152601b60248201527f554e45585045435445445f434f4e54524143545f56455253494f4e0000000000604482015290519081900360640190fd5b50565b5490565b9055565b600160a060020a0381161515611597576040805160e560020a62461bcd02815260206004820152601e60248201527f5a45524f5f4143434f554e54494e475f4f5241434c455f414444524553530000604482015290519081900360640190fd5b6115c77fea0b659bb027a76ad14e51fad85cb5d4cedf3fd9dc4531be67b31d6d8725e9c68263ffffffff61153316565b6115d16004611d79565b61152c7f75be19a3f314d89bd1f84d30a6c84e2f1cd7afc7b6ca21876564c265113bb7e4600063ffffffff61153316565b61160a611e5e565b600080600080600086945084600160a060020a031663606c0c946040518163ffffffff1660e01b8152600401606060405180830381600087803b15801561165057600080fd5b505af1158015611664573d6000803e3d6000fd5b505050506040513d606081101561167a57600080fd5b508051602082015160409283015183517f6fb1bf6600000000000000000000000000000000000000000000000000000000815284519398509196509450600160a060020a03881692636fb1bf66926004808401938290030181600087803b1580156116e457600080fd5b505af11580156116f8573d6000803e3d6000fd5b505050506040513d604081101561170e57600080fd5b5060209081015167ffffffffffffffff90811688529485169087015250908216604085015216606083015250919050565b600080826020015167ffffffffffffffff161115156117a8576040805160e560020a62461bcd02815260206004820152601360248201527f4241445f534c4f54535f5045525f45504f434800000000000000000000000000604482015290519081900360640190fd5b6000826040015167ffffffffffffffff16111515611810576040805160e560020a62461bcd02815260206004820152601460248201527f4241445f5345434f4e44535f5045525f534c4f54000000000000000000000000604482015290519081900360640190fd5b6000826060015167ffffffffffffffff16111515611878576040805160e560020a62461bcd02815260206004820152601060248201527f4241445f47454e455349535f54494d4500000000000000000000000000000000604482015290519081900360640190fd5b8151600067ffffffffffffffff909116116118dd576040805160e560020a62461bcd02815260206004820152601460248201527f4241445f45504f4348535f5045525f4652414d45000000000000000000000000604482015290519081900360640190fd5b5060608101516040808301516020840151845167ffffffffffffffff90811660c01b91811660801b9190911791811690921b179116176119437f805e82d53a51be3dfde7cfed901f1f96f5dad18e874708b082adb8841e8ca9098263ffffffff61153316565b5050565b61194f610d91565b60408051808201909152601881527f494e49545f414c52454144595f494e495449414c495a45440000000000000000602082015290156119d45760405160e560020a62461bcd028152600401808060200182810382528381815181526020019150805190602001908083836000838110156106bf5781810151838201526020016106a7565b50611a0d6119e06114ca565b7febb05b386a8d34882b8711d156f463690983dc47815980fb82aeeff1aa43579e9063ffffffff61153316565b565b611a17611e5e565b6000611a427f805e82d53a51be3dfde7cfed901f1f96f5dad18e874708b082adb8841e8ca90961152f565b67ffffffffffffffff60c082901c81168452608082901c81166020850152604082811c8216908501521660608301525090565b6000806000611a82611e5e565b600080611a8d611a0f565b9250611a97611d35565b915081600160a060020a03166372f79b136040518163ffffffff1660e01b81526004016040805180830381600087803b158015611ad357600080fd5b505af1158015611ae7573d6000803e3d6000fd5b505050506040513d6040811015611afd57600080fd5b5051604084015160608501518551602087015167ffffffffffffffff80851660018701908102948216949094019a5093810290910283168901600019019750929350911690811515611b4b57fe5b049550505050909192565b9055565b600080600160a060020a0383161515611b765760009150611b81565b823b90506000811191505b50919050565b60408051600160a060020a0383166024808301919091528251808303909101815260449091019091526020810180517bffffffffffffffffffffffffffffffffffffffffffffffffffffffff167f70a08231000000000000000000000000000000000000000000000000000000001790526000908180611c078684611ddf565b60408051808201909152601c81527f534146455f4552435f32305f42414c414e43455f52455645525445440000000060208201529193509150821515611c925760405160e560020a62461bcd028152600401808060200182810382528381815181526020019150805190602001908083836000838110156106bf5781810151838201526020016106a7565b5095945050505050565b60408051600160a060020a038416602482015260448082018490528251808303909101815260649091019091526020810180517bffffffffffffffffffffffffffffffffffffffffffffffffffffffff167fa9059cbb00000000000000000000000000000000000000000000000000000000179052600090611d1e8582611e10565b95945050505050565b8051602002815290565b4290565b6000611d3f611162565b600160a060020a0316638f55b5716040518163ffffffff1660e01b8152600401602060405180830381600087803b1580156105fe57600080fd5b611da97f4dd0f6662ba1d6b081f08b350f5e9a6a7b15cf586926ba66f753594928fa64a68263ffffffff61153316565b6040805182815290517ffddcded6b4f4730c226821172046b48372d3cd963c159701ae1b7c3bcac541bb9181900360200190a150565b6000806000806040516020818751602089018a5afa92506000831115611e0457805191505b50909590945092505050565b6000806040516020818551602087016000895af16000811115611e54573d8015611e415760208114611e4a57611e52565b60019350611e52565b600183511493505b505b5090949350505050565b604080516080810182526000808252602082018190529181018290526060810191909152905600a165627a7a7230582017cf16aa9e1363cbb675a3f30ec8a364e5bb2010dab1b5fb85514683381441020029ebb05b386a8d34882b8711d156f463690983dc47815980fb82aeeff1aa43579e",
    "linkReferences": {},
    "deployedLinkReferences": {}
}