{
    "_format": "hh-sol-artifact-1",
    "contractName": "NodeOperatorsRegistry",
    "sourceName": "contracts/0.4.24/nos/NodeOperatorsRegistry.sol",
    "abi": [
        {
            "constant": true,
            "inputs": [],
            "name": "hasInitialized",
            "outputs": [
                {
                    "name": "",
                    "type": "bool"
                }
            ],
            "payable": false,
            "stateMutability": "view",
            "type": "function"
        },
        {
            "constant": false,
            "inputs": [
                {
                    "name": "_nodeOperatorId",
                    "type": "uint256"
                },
                {
                    "name": "_keysCount",
                    "type": "uint256"
                },
                {
                    "name": "_publicKeys",
                    "type": "bytes"
                },
                {
                    "name": "_signatures",
                    "type": "bytes"
                }
            ],
            "name": "addSigningKeys",
            "outputs": [],
            "payable": false,
            "stateMutability": "nonpayable",
            "type": "function"
        },
        {
            "constant": true,
            "inputs": [],
            "name": "getType",
            "outputs": [
                {
                    "name": "",
                    "type": "bytes32"
                }
            ],
            "payable": false,
            "stateMutability": "view",
            "type": "function"
        },
        {
            "constant": true,
            "inputs": [
                {
                    "name": "_script",
                    "type": "bytes"
                }
            ],
            "name": "getEVMScriptExecutor",
            "outputs": [
                {
                    "name": "",
                    "type": "address"
                }
            ],
            "payable": false,
            "stateMutability": "view",
            "type": "function"
        },
        {
            "constant": false,
            "inputs": [
                {
                    "name": "_nodeOperatorId",
                    "type": "uint256"
                }
            ],
            "name": "clearNodeOperatorPenalty",
            "outputs": [
                {
                    "name": "",
                    "type": "bool"
                }
            ],
            "payable": false,
            "stateMutability": "nonpayable",
            "type": "function"
        },
        {
            "constant": true,
            "inputs": [],
            "name": "getRecoveryVault",
            "outputs": [
                {
                    "name": "",
                    "type": "address"
                }
            ],
            "payable": false,
            "stateMutability": "view",
            "type": "function"
        },
        {
            "constant": true,
            "inputs": [
                {
                    "name": "_offset",
                    "type": "uint256"
                },
                {
                    "name": "_limit",
                    "type": "uint256"
                }
            ],
            "name": "getNodeOperatorIds",
            "outputs": [
                {
                    "name": "nodeOperatorIds",
                    "type": "uint256[]"
                }
            ],
            "payable": false,
            "stateMutability": "view",
            "type": "function"
        },
        {
            "constant": true,
            "inputs": [
                {
                    "name": "_nodeOperatorId",
                    "type": "uint256"
                },
                {
                    "name": "_offset",
                    "type": "uint256"
                },
                {
                    "name": "_limit",
                    "type": "uint256"
                }
            ],
            "name": "getSigningKeys",
            "outputs": [
                {
                    "name": "pubkeys",
                    "type": "bytes"
                },
                {
                    "name": "signatures",
                    "type": "bytes"
                },
                {
                    "name": "used",
                    "type": "bool[]"
                }
            ],
            "payable": false,
            "stateMutability": "view",
            "type": "function"
        },
        {
            "constant": false,
            "inputs": [
                {
                    "name": "_nodeOperatorId",
                    "type": "uint256"
                },
                {
                    "name": "_fromIndex",
                    "type": "uint256"
                },
                {
                    "name": "_keysCount",
                    "type": "uint256"
                }
            ],
            "name": "removeSigningKeysOperatorBH",
            "outputs": [],
            "payable": false,
            "stateMutability": "nonpayable",
            "type": "function"
        },
        {
            "constant": true,
            "inputs": [
                {
                    "name": "_nodeOperatorId",
                    "type": "uint256"
                }
            ],
            "name": "getNodeOperatorIsActive",
            "outputs": [
                {
                    "name": "",
                    "type": "bool"
                }
            ],
            "payable": false,
            "stateMutability": "view",
            "type": "function"
        },
        {
            "constant": false,
            "inputs": [
                {
                    "name": "_nodeOperatorId",
                    "type": "uint256"
                },
                {
                    "name": "_name",
                    "type": "string"
                }
            ],
            "name": "setNodeOperatorName",
            "outputs": [],
            "payable": false,
            "stateMutability": "nonpayable",
            "type": "function"
        },
        {
            "constant": true,
            "inputs": [
                {
                    "name": "_totalRewardShares",
                    "type": "uint256"
                }
            ],
            "name": "getRewardsDistribution",
            "outputs": [
                {
                    "name": "recipients",
                    "type": "address[]"
                },
                {
                    "name": "shares",
                    "type": "uint256[]"
                },
                {
                    "name": "penalized",
                    "type": "bool[]"
                }
            ],
            "payable": false,
            "stateMutability": "view",
            "type": "function"
        },
        {
            "constant": false,
            "inputs": [
                {
                    "name": "_indexFrom",
                    "type": "uint256"
                },
                {
                    "name": "_indexTo",
                    "type": "uint256"
                }
            ],
            "name": "invalidateReadyToDepositKeysRange",
            "outputs": [],
            "payable": false,
            "stateMutability": "nonpayable",
            "type": "function"
        },
        {
            "constant": false,
            "inputs": [
                {
                    "name": "_locator",
                    "type": "address"
                },
                {
                    "name": "_type",
                    "type": "bytes32"
                },
                {
                    "name": "_stuckPenaltyDelay",
                    "type": "uint256"
                }
            ],
            "name": "initialize",
            "outputs": [],
            "payable": false,
            "stateMutability": "nonpayable",
            "type": "function"
        },
        {
            "constant": false,
            "inputs": [
                {
                    "name": "_delay",
                    "type": "uint256"
                }
            ],
            "name": "setStuckPenaltyDelay",
            "outputs": [],
            "payable": false,
            "stateMutability": "nonpayable",
            "type": "function"
        },
        {
            "constant": true,
            "inputs": [],
            "name": "getStuckPenaltyDelay",
            "outputs": [
                {
                    "name": "",
                    "type": "uint256"
                }
            ],
            "payable": false,
            "stateMutability": "view",
            "type": "function"
        },
        {
            "constant": false,
            "inputs": [
                {
                    "name": "_nodeOperatorId",
                    "type": "uint256"
                },
                {
                    "name": "_index",
                    "type": "uint256"
                }
            ],
            "name": "removeSigningKey",
            "outputs": [],
            "payable": false,
            "stateMutability": "nonpayable",
            "type": "function"
        },
        {
            "constant": false,
            "inputs": [
                {
                    "name": "_nodeOperatorId",
                    "type": "uint256"
                },
                {
                    "name": "_fromIndex",
                    "type": "uint256"
                },
                {
                    "name": "_keysCount",
                    "type": "uint256"
                }
            ],
            "name": "removeSigningKeys",
            "outputs": [],
            "payable": false,
            "stateMutability": "nonpayable",
            "type": "function"
        },
        {
            "constant": true,
            "inputs": [
                {
                    "name": "_nodeOperatorId",
                    "type": "uint256"
                }
            ],
            "name": "isOperatorPenalized",
            "outputs": [
                {
                    "name": "",
                    "type": "bool"
                }
            ],
            "payable": false,
            "stateMutability": "view",
            "type": "function"
        },
        {
            "constant": false,
            "inputs": [
                {
                    "name": "_nodeOperatorId",
                    "type": "uint256"
                }
            ],
            "name": "deactivateNodeOperator",
            "outputs": [],
            "payable": false,
            "stateMutability": "nonpayable",
            "type": "function"
        },
        {
            "constant": true,
            "inputs": [
                {
                    "name": "token",
                    "type": "address"
                }
            ],
            "name": "allowRecoverability",
            "outputs": [
                {
                    "name": "",
                    "type": "bool"
                }
            ],
            "payable": false,
            "stateMutability": "view",
            "type": "function"
        },
        {
            "constant": true,
            "inputs": [],
            "name": "STAKING_ROUTER_ROLE",
            "outputs": [
                {
                    "name": "",
                    "type": "bytes32"
                }
            ],
            "payable": false,
            "stateMutability": "view",
            "type": "function"
        },
        {
            "constant": false,
            "inputs": [
                {
                    "name": "_nodeOperatorId",
                    "type": "uint256"
                },
                {
                    "name": "_keysCount",
                    "type": "uint256"
                },
                {
                    "name": "_publicKeys",
                    "type": "bytes"
                },
                {
                    "name": "_signatures",
                    "type": "bytes"
                }
            ],
            "name": "addSigningKeysOperatorBH",
            "outputs": [],
            "payable": false,
            "stateMutability": "nonpayable",
            "type": "function"
        },
        {
            "constant": true,
            "inputs": [],
            "name": "appId",
            "outputs": [
                {
                    "name": "",
                    "type": "bytes32"
                }
            ],
            "payable": false,
            "stateMutability": "view",
            "type": "function"
        },
        {
            "constant": true,
            "inputs": [],
            "name": "getActiveNodeOperatorsCount",
            "outputs": [
                {
                    "name": "",
                    "type": "uint256"
                }
            ],
            "payable": false,
            "stateMutability": "view",
            "type": "function"
        },
        {
            "constant": false,
            "inputs": [
                {
                    "name": "_name",
                    "type": "string"
                },
                {
                    "name": "_rewardAddress",
                    "type": "address"
                }
            ],
            "name": "addNodeOperator",
            "outputs": [
                {
                    "name": "id",
                    "type": "uint256"
                }
            ],
            "payable": false,
            "stateMutability": "nonpayable",
            "type": "function"
        },
        {
            "constant": true,
            "inputs": [],
            "name": "getContractVersion",
            "outputs": [
                {
                    "name": "",
                    "type": "uint256"
                }
            ],
            "payable": false,
            "stateMutability": "view",
            "type": "function"
        },
        {
            "constant": true,
            "inputs": [],
            "name": "getInitializationBlock",
            "outputs": [
                {
                    "name": "",
                    "type": "uint256"
                }
            ],
            "payable": false,
            "stateMutability": "view",
            "type": "function"
        },
        {
            "constant": true,
            "inputs": [
                {
                    "name": "_nodeOperatorId",
                    "type": "uint256"
                }
            ],
            "name": "getUnusedSigningKeyCount",
            "outputs": [
                {
                    "name": "",
                    "type": "uint256"
                }
            ],
            "payable": false,
            "stateMutability": "view",
            "type": "function"
        },
        {
            "constant": true,
            "inputs": [
                {
                    "name": "",
                    "type": "uint256"
                }
            ],
            "name": "onRewardsMinted",
            "outputs": [],
            "payable": false,
            "stateMutability": "view",
            "type": "function"
        },
        {
            "constant": true,
            "inputs": [],
            "name": "MANAGE_NODE_OPERATOR_ROLE",
            "outputs": [
                {
                    "name": "",
                    "type": "bytes32"
                }
            ],
            "payable": false,
            "stateMutability": "view",
            "type": "function"
        },
        {
            "constant": false,
            "inputs": [],
            "name": "onWithdrawalCredentialsChanged",
            "outputs": [],
            "payable": false,
            "stateMutability": "nonpayable",
            "type": "function"
        },
        {
            "constant": false,
            "inputs": [
                {
                    "name": "_nodeOperatorId",
                    "type": "uint256"
                }
            ],
            "name": "activateNodeOperator",
            "outputs": [],
            "payable": false,
            "stateMutability": "nonpayable",
            "type": "function"
        },
        {
            "constant": false,
            "inputs": [
                {
                    "name": "_nodeOperatorId",
                    "type": "uint256"
                },
                {
                    "name": "_rewardAddress",
                    "type": "address"
                }
            ],
            "name": "setNodeOperatorRewardAddress",
            "outputs": [],
            "payable": false,
            "stateMutability": "nonpayable",
            "type": "function"
        },
        {
            "constant": true,
            "inputs": [
                {
                    "name": "_nodeOperatorId",
                    "type": "uint256"
                },
                {
                    "name": "_fullInfo",
                    "type": "bool"
                }
            ],
            "name": "getNodeOperator",
            "outputs": [
                {
                    "name": "active",
                    "type": "bool"
                },
                {
                    "name": "name",
                    "type": "string"
                },
                {
                    "name": "rewardAddress",
                    "type": "address"
                },
                {
                    "name": "totalVettedValidators",
                    "type": "uint64"
                },
                {
                    "name": "totalExitedValidators",
                    "type": "uint64"
                },
                {
                    "name": "totalAddedValidators",
                    "type": "uint64"
                },
                {
                    "name": "totalDepositedValidators",
                    "type": "uint64"
                }
            ],
            "payable": false,
            "stateMutability": "view",
            "type": "function"
        },
        {
            "constant": false,
            "inputs": [
                {
                    "name": "_locator",
                    "type": "address"
                },
                {
                    "name": "_type",
                    "type": "bytes32"
                },
                {
                    "name": "_stuckPenaltyDelay",
                    "type": "uint256"
                }
            ],
            "name": "finalizeUpgrade_v2",
            "outputs": [],
            "payable": false,
            "stateMutability": "nonpayable",
            "type": "function"
        },
        {
            "constant": true,
            "inputs": [],
            "name": "getStakingModuleSummary",
            "outputs": [
                {
                    "name": "totalExitedValidators",
                    "type": "uint256"
                },
                {
                    "name": "totalDepositedValidators",
                    "type": "uint256"
                },
                {
                    "name": "depositableValidatorsCount",
                    "type": "uint256"
                }
            ],
            "payable": false,
            "stateMutability": "view",
            "type": "function"
        },
        {
            "constant": false,
            "inputs": [
                {
                    "name": "_nodeOperatorIds",
                    "type": "bytes"
                },
                {
                    "name": "_exitedValidatorsCounts",
                    "type": "bytes"
                }
            ],
            "name": "updateExitedValidatorsCount",
            "outputs": [],
            "payable": false,
            "stateMutability": "nonpayable",
            "type": "function"
        },
        {
            "constant": false,
            "inputs": [
                {
                    "name": "_nodeOperatorIds",
                    "type": "bytes"
                },
                {
                    "name": "_stuckValidatorsCounts",
                    "type": "bytes"
                }
            ],
            "name": "updateStuckValidatorsCount",
            "outputs": [],
            "payable": false,
            "stateMutability": "nonpayable",
            "type": "function"
        },
        {
            "constant": false,
            "inputs": [
                {
                    "name": "_token",
                    "type": "address"
                }
            ],
            "name": "transferToVault",
            "outputs": [],
            "payable": false,
            "stateMutability": "nonpayable",
            "type": "function"
        },
        {
            "constant": true,
            "inputs": [
                {
                    "name": "_sender",
                    "type": "address"
                },
                {
                    "name": "_role",
                    "type": "bytes32"
                },
                {
                    "name": "_params",
                    "type": "uint256[]"
                }
            ],
            "name": "canPerform",
            "outputs": [
                {
                    "name": "",
                    "type": "bool"
                }
            ],
            "payable": false,
            "stateMutability": "view",
            "type": "function"
        },
        {
            "constant": false,
            "inputs": [
                {
                    "name": "_nodeOperatorId",
                    "type": "uint256"
                },
                {
                    "name": "_refundedValidatorsCount",
                    "type": "uint256"
                }
            ],
            "name": "updateRefundedValidatorsCount",
            "outputs": [],
            "payable": false,
            "stateMutability": "nonpayable",
            "type": "function"
        },
        {
            "constant": true,
            "inputs": [],
            "name": "getEVMScriptRegistry",
            "outputs": [
                {
                    "name": "",
                    "type": "address"
                }
            ],
            "payable": false,
            "stateMutability": "view",
            "type": "function"
        },
        {
            "constant": true,
            "inputs": [],
            "name": "getNodeOperatorsCount",
            "outputs": [
                {
                    "name": "",
                    "type": "uint256"
                }
            ],
            "payable": false,
            "stateMutability": "view",
            "type": "function"
        },
        {
            "constant": false,
            "inputs": [
                {
                    "name": "_nodeOperatorId",
                    "type": "uint256"
                },
                {
                    "name": "_isTargetLimitActive",
                    "type": "bool"
                },
                {
                    "name": "_targetLimit",
                    "type": "uint256"
                }
            ],
            "name": "updateTargetValidatorsLimits",
            "outputs": [],
            "payable": false,
            "stateMutability": "nonpayable",
            "type": "function"
        },
        {
            "constant": false,
            "inputs": [
                {
                    "name": "_nodeOperatorId",
                    "type": "uint256"
                },
                {
                    "name": "_vettedSigningKeysCount",
                    "type": "uint64"
                }
            ],
            "name": "setNodeOperatorStakingLimit",
            "outputs": [],
            "payable": false,
            "stateMutability": "nonpayable",
            "type": "function"
        },
        {
            "constant": true,
            "inputs": [
                {
                    "name": "_nodeOperatorId",
                    "type": "uint256"
                }
            ],
            "name": "getNodeOperatorSummary",
            "outputs": [
                {
                    "name": "isTargetLimitActive",
                    "type": "bool"
                },
                {
                    "name": "targetValidatorsCount",
                    "type": "uint256"
                },
                {
                    "name": "stuckValidatorsCount",
                    "type": "uint256"
                },
                {
                    "name": "refundedValidatorsCount",
                    "type": "uint256"
                },
                {
                    "name": "stuckPenaltyEndTimestamp",
                    "type": "uint256"
                },
                {
                    "name": "totalExitedValidators",
                    "type": "uint256"
                },
                {
                    "name": "totalDepositedValidators",
                    "type": "uint256"
                },
                {
                    "name": "depositableValidatorsCount",
                    "type": "uint256"
                }
            ],
            "payable": false,
            "stateMutability": "view",
            "type": "function"
        },
        {
            "constant": true,
            "inputs": [
                {
                    "name": "_nodeOperatorId",
                    "type": "uint256"
                },
                {
                    "name": "_index",
                    "type": "uint256"
                }
            ],
            "name": "getSigningKey",
            "outputs": [
                {
                    "name": "key",
                    "type": "bytes"
                },
                {
                    "name": "depositSignature",
                    "type": "bytes"
                },
                {
                    "name": "used",
                    "type": "bool"
                }
            ],
            "payable": false,
            "stateMutability": "view",
            "type": "function"
        },
        {
            "constant": true,
            "inputs": [],
            "name": "MAX_NODE_OPERATOR_NAME_LENGTH",
            "outputs": [
                {
                    "name": "",
                    "type": "uint256"
                }
            ],
            "payable": false,
            "stateMutability": "view",
            "type": "function"
        },
        {
            "constant": false,
            "inputs": [
                {
                    "name": "_depositsCount",
                    "type": "uint256"
                },
                {
                    "name": "",
                    "type": "bytes"
                }
            ],
            "name": "obtainDepositData",
            "outputs": [
                {
                    "name": "publicKeys",
                    "type": "bytes"
                },
                {
                    "name": "signatures",
                    "type": "bytes"
                }
            ],
            "payable": false,
            "stateMutability": "nonpayable",
            "type": "function"
        },
        {
            "constant": true,
            "inputs": [],
            "name": "getKeysOpIndex",
            "outputs": [
                {
                    "name": "",
                    "type": "uint256"
                }
            ],
            "payable": false,
            "stateMutability": "view",
            "type": "function"
        },
        {
            "constant": true,
            "inputs": [],
            "name": "getNonce",
            "outputs": [
                {
                    "name": "",
                    "type": "uint256"
                }
            ],
            "payable": false,
            "stateMutability": "view",
            "type": "function"
        },
        {
            "constant": true,
            "inputs": [],
            "name": "kernel",
            "outputs": [
                {
                    "name": "",
                    "type": "address"
                }
            ],
            "payable": false,
            "stateMutability": "view",
            "type": "function"
        },
        {
            "constant": true,
            "inputs": [],
            "name": "getLocator",
            "outputs": [
                {
                    "name": "",
                    "type": "address"
                }
            ],
            "payable": false,
            "stateMutability": "view",
            "type": "function"
        },
        {
            "constant": true,
            "inputs": [],
            "name": "SET_NODE_OPERATOR_LIMIT_ROLE",
            "outputs": [
                {
                    "name": "",
                    "type": "bytes32"
                }
            ],
            "payable": false,
            "stateMutability": "view",
            "type": "function"
        },
        {
            "constant": true,
            "inputs": [
                {
                    "name": "_nodeOperatorId",
                    "type": "uint256"
                }
            ],
            "name": "getTotalSigningKeyCount",
            "outputs": [
                {
                    "name": "",
                    "type": "uint256"
                }
            ],
            "payable": false,
            "stateMutability": "view",
            "type": "function"
        },
        {
            "constant": true,
            "inputs": [],
            "name": "isPetrified",
            "outputs": [
                {
                    "name": "",
                    "type": "bool"
                }
            ],
            "payable": false,
            "stateMutability": "view",
            "type": "function"
        },
        {
            "constant": true,
            "inputs": [],
            "name": "MAX_STUCK_PENALTY_DELAY",
            "outputs": [
                {
                    "name": "",
                    "type": "uint256"
                }
            ],
            "payable": false,
            "stateMutability": "view",
            "type": "function"
        },
        {
            "constant": false,
            "inputs": [],
            "name": "onExitedAndStuckValidatorsCountsUpdated",
            "outputs": [],
            "payable": false,
            "stateMutability": "nonpayable",
            "type": "function"
        },
        {
            "constant": true,
            "inputs": [],
            "name": "MAX_NODE_OPERATORS_COUNT",
            "outputs": [
                {
                    "name": "",
                    "type": "uint256"
                }
            ],
            "payable": false,
            "stateMutability": "view",
            "type": "function"
        },
        {
            "constant": false,
            "inputs": [
                {
                    "name": "_nodeOperatorId",
                    "type": "uint256"
                },
                {
                    "name": "_index",
                    "type": "uint256"
                }
            ],
            "name": "removeSigningKeyOperatorBH",
            "outputs": [],
            "payable": false,
            "stateMutability": "nonpayable",
            "type": "function"
        },
        {
            "constant": false,
            "inputs": [
                {
                    "name": "_nodeOperatorId",
                    "type": "uint256"
                },
                {
                    "name": "_exitedValidatorsCount",
                    "type": "uint256"
                },
                {
                    "name": "_stuckValidatorsCount",
                    "type": "uint256"
                }
            ],
            "name": "unsafeUpdateValidatorsCount",
            "outputs": [],
            "payable": false,
            "stateMutability": "nonpayable",
            "type": "function"
        },
        {
            "constant": true,
            "inputs": [],
            "name": "MANAGE_SIGNING_KEYS",
            "outputs": [
                {
                    "name": "",
                    "type": "bytes32"
                }
            ],
            "payable": false,
            "stateMutability": "view",
            "type": "function"
        },
        {
            "constant": true,
            "inputs": [
                {
                    "name": "_nodeOperatorId",
                    "type": "uint256"
                }
            ],
            "name": "isOperatorPenaltyCleared",
            "outputs": [
                {
                    "name": "",
                    "type": "bool"
                }
            ],
            "payable": false,
            "stateMutability": "view",
            "type": "function"
        },
        {
            "anonymous": false,
            "inputs": [
                {
                    "indexed": false,
                    "name": "nodeOperatorId",
                    "type": "uint256"
                },
                {
                    "indexed": false,
                    "name": "name",
                    "type": "string"
                },
                {
                    "indexed": false,
                    "name": "rewardAddress",
                    "type": "address"
                },
                {
                    "indexed": false,
                    "name": "stakingLimit",
                    "type": "uint64"
                }
            ],
            "name": "NodeOperatorAdded",
            "type": "event"
        },
        {
            "anonymous": false,
            "inputs": [
                {
                    "indexed": true,
                    "name": "nodeOperatorId",
                    "type": "uint256"
                },
                {
                    "indexed": false,
                    "name": "active",
                    "type": "bool"
                }
            ],
            "name": "NodeOperatorActiveSet",
            "type": "event"
        },
        {
            "anonymous": false,
            "inputs": [
                {
                    "indexed": true,
                    "name": "nodeOperatorId",
                    "type": "uint256"
                },
                {
                    "indexed": false,
                    "name": "name",
                    "type": "string"
                }
            ],
            "name": "NodeOperatorNameSet",
            "type": "event"
        },
        {
            "anonymous": false,
            "inputs": [
                {
                    "indexed": true,
                    "name": "nodeOperatorId",
                    "type": "uint256"
                },
                {
                    "indexed": false,
                    "name": "rewardAddress",
                    "type": "address"
                }
            ],
            "name": "NodeOperatorRewardAddressSet",
            "type": "event"
        },
        {
            "anonymous": false,
            "inputs": [
                {
                    "indexed": true,
                    "name": "nodeOperatorId",
                    "type": "uint256"
                },
                {
                    "indexed": false,
                    "name": "totalKeysTrimmed",
                    "type": "uint64"
                }
            ],
            "name": "NodeOperatorTotalKeysTrimmed",
            "type": "event"
        },
        {
            "anonymous": false,
            "inputs": [
                {
                    "indexed": false,
                    "name": "keysOpIndex",
                    "type": "uint256"
                }
            ],
            "name": "KeysOpIndexSet",
            "type": "event"
        },
        {
            "anonymous": false,
            "inputs": [
                {
                    "indexed": false,
                    "name": "moduleType",
                    "type": "bytes32"
                }
            ],
            "name": "StakingModuleTypeSet",
            "type": "event"
        },
        {
            "anonymous": false,
            "inputs": [
                {
                    "indexed": true,
                    "name": "rewardAddress",
                    "type": "address"
                },
                {
                    "indexed": false,
                    "name": "sharesAmount",
                    "type": "uint256"
                }
            ],
            "name": "RewardsDistributed",
            "type": "event"
        },
        {
            "anonymous": false,
            "inputs": [
                {
                    "indexed": false,
                    "name": "locatorAddress",
                    "type": "address"
                }
            ],
            "name": "LocatorContractSet",
            "type": "event"
        },
        {
            "anonymous": false,
            "inputs": [
                {
                    "indexed": true,
                    "name": "nodeOperatorId",
                    "type": "uint256"
                },
                {
                    "indexed": false,
                    "name": "approvedValidatorsCount",
                    "type": "uint256"
                }
            ],
            "name": "VettedSigningKeysCountChanged",
            "type": "event"
        },
        {
            "anonymous": false,
            "inputs": [
                {
                    "indexed": true,
                    "name": "nodeOperatorId",
                    "type": "uint256"
                },
                {
                    "indexed": false,
                    "name": "depositedValidatorsCount",
                    "type": "uint256"
                }
            ],
            "name": "DepositedSigningKeysCountChanged",
            "type": "event"
        },
        {
            "anonymous": false,
            "inputs": [
                {
                    "indexed": true,
                    "name": "nodeOperatorId",
                    "type": "uint256"
                },
                {
                    "indexed": false,
                    "name": "exitedValidatorsCount",
                    "type": "uint256"
                }
            ],
            "name": "ExitedSigningKeysCountChanged",
            "type": "event"
        },
        {
            "anonymous": false,
            "inputs": [
                {
                    "indexed": true,
                    "name": "nodeOperatorId",
                    "type": "uint256"
                },
                {
                    "indexed": false,
                    "name": "totalValidatorsCount",
                    "type": "uint256"
                }
            ],
            "name": "TotalSigningKeysCountChanged",
            "type": "event"
        },
        {
            "anonymous": false,
            "inputs": [
                {
                    "indexed": false,
                    "name": "nonce",
                    "type": "uint256"
                }
            ],
            "name": "NonceChanged",
            "type": "event"
        },
        {
            "anonymous": false,
            "inputs": [
                {
                    "indexed": false,
                    "name": "stuckPenaltyDelay",
                    "type": "uint256"
                }
            ],
            "name": "StuckPenaltyDelayChanged",
            "type": "event"
        },
        {
            "anonymous": false,
            "inputs": [
                {
                    "indexed": true,
                    "name": "nodeOperatorId",
                    "type": "uint256"
                },
                {
                    "indexed": false,
                    "name": "stuckValidatorsCount",
                    "type": "uint256"
                },
                {
                    "indexed": false,
                    "name": "refundedValidatorsCount",
                    "type": "uint256"
                },
                {
                    "indexed": false,
                    "name": "stuckPenaltyEndTimestamp",
                    "type": "uint256"
                }
            ],
            "name": "StuckPenaltyStateChanged",
            "type": "event"
        },
        {
            "anonymous": false,
            "inputs": [
                {
                    "indexed": true,
                    "name": "nodeOperatorId",
                    "type": "uint256"
                },
                {
                    "indexed": false,
                    "name": "targetValidatorsCount",
                    "type": "uint256"
                }
            ],
            "name": "TargetValidatorsCountChanged",
            "type": "event"
        },
        {
            "anonymous": false,
            "inputs": [
                {
                    "indexed": true,
                    "name": "recipientAddress",
                    "type": "address"
                },
                {
                    "indexed": false,
                    "name": "sharesPenalizedAmount",
                    "type": "uint256"
                }
            ],
            "name": "NodeOperatorPenalized",
            "type": "event"
        },
        {
            "anonymous": false,
            "inputs": [
                {
                    "indexed": false,
                    "name": "version",
                    "type": "uint256"
                }
            ],
            "name": "ContractVersionSet",
            "type": "event"
        },
        {
            "anonymous": false,
            "inputs": [
                {
                    "indexed": true,
                    "name": "executor",
                    "type": "address"
                },
                {
                    "indexed": false,
                    "name": "script",
                    "type": "bytes"
                },
                {
                    "indexed": false,
                    "name": "input",
                    "type": "bytes"
                },
                {
                    "indexed": false,
                    "name": "returnData",
                    "type": "bytes"
                }
            ],
            "name": "ScriptResult",
            "type": "event"
        },
        {
            "anonymous": false,
            "inputs": [
                {
                    "indexed": true,
                    "name": "vault",
                    "type": "address"
                },
                {
                    "indexed": true,
                    "name": "token",
                    "type": "address"
                },
                {
                    "indexed": false,
                    "name": "amount",
                    "type": "uint256"
                }
            ],
            "name": "RecoverToVault",
            "type": "event"
        }
    ],
    "bytecode": "0x6080604052620000146200005460201b60201c565b6200004e7f4dd0f6662ba1d6b081f08b350f5e9a6a7b15cf586926ba66f753594928fa64a660001962000156602090811b62003d6d17901c565b6200026b565b620000646200015a60201b60201c565b60408051808201909152601881527f494e49545f414c52454144595f494e495449414c495a454400000000000000006020820152901562000140576040517f08c379a00000000000000000000000000000000000000000000000000000000081526004018080602001828103825283818151815260200191508051906020019080838360005b8381101562000104578181015183820152602001620000ea565b50505050905090810190601f168015620001325780820380516001836020036101000a031916815260200191505b509250505060405180910390fd5b50620001546000196200018d60201b60201c565b565b9055565b60006200018860008051602062005de083398151915260001b600019166200026760201b62002f7c1760201c565b905090565b6200019d6200015a60201b60201c565b60408051808201909152601881527f494e49545f414c52454144595f494e495449414c495a45440000000000000000602082015290156200023c576040517f08c379a00000000000000000000000000000000000000000000000000000000081526004018080602001828103825283818151815260200191508051906020019080838360008381101562000104578181015183820152602001620000ea565b506200026460008051602062005de08339815191528262000156602090811b62003d6d17901c565b50565b5490565b615b65806200027b6000396000f3006080604052600436106102d95760003560e01c63ffffffff1680630803fac0146102de578063096b7b351461030757806315dae03e1461033d5780632914b9bd1461036457806330a90f01146103d957806332f0a3b5146103f15780634febc81b1461040657806359e25c12146104715780635ddde810146105ae5780635e2fb908146105cc5780635e57d742146105e457806362dcfda11461060857806365cc369a146106e5578063684560a2146107005780636ccc7562146107275780636da7d0a71461073f5780636ef355f1146107545780637038b141146105ae57806375049ad81461076f57806375a080d5146107875780637e7db6e11461079f57806380231f15146107c0578063805911ae1461030757806380afdea8146107d55780638469cbd3146107ea57806385fa63d7146107ff5780638aa104351461082d5780638b3dd749146108425780638ca7c052146108575780638d7e40171461086f5780638ece99951461088757806390c09bdb1461089c57806391dcd6b2146108b1578063973e9328146108c95780639a56983c146108ed5780639a7c2ade146109c95780639abddf09146109f05780639b00c14614610a235780639b3d190014610a4f5780639d4941d814610a7b578063a1658fad14610a9c578063a2e080f114610b03578063a479e50814610b1e578063a70c70e414610b33578063a9e7a84614610b48578063ae962acf14610b68578063b3076c3c14610b8d578063b449402a14610be8578063b497183314610cec578063bee41b5814610d01578063d07442f114610e03578063d087d28814610e03578063d4aae0c414610e18578063d8343dcb14610e2d578063d8e71cd114610e42578063db9887ea14610e57578063de4796ed14610e6f578063e204d09b14610e84578063e864299e14610e99578063ec5af3a414610eae578063ed5cfa4114610754578063f2e2ca6314610ec3578063f31bd9c114610ee1578063fbc77ef114610ef6575b600080fd5b3480156102ea57600080fd5b506102f3610f0e565b604080519115158252519081900360200190f35b34801561031357600080fd5b5061033b60048035906024803591604435808301929082013591606435918201910135610f38565b005b34801561034957600080fd5b50610352610fa9565b60408051918252519081900360200190f35b34801561037057600080fd5b506040805160206004803580820135601f81018490048402850184019095528484526103bd943694929360249392840191908190840183828082843750949750610fda9650505050505050565b60408051600160a060020a039092168252519081900360200190f35b3480156103e557600080fd5b506102f36004356110bd565b3480156103fd57600080fd5b506103bd611181565b34801561041257600080fd5b506104216004356024356111f6565b60408051602080825283518183015283519192839290830191858101910280838360005b8381101561045d578181015183820152602001610445565b505050509050019250505060405180910390f35b34801561047d57600080fd5b5061048f60043560243560443561128d565b60405180806020018060200180602001848103845287818151815260200191508051906020019080838360005b838110156104d45781810151838201526020016104bc565b50505050905090810190601f1680156105015780820380516001836020036101000a031916815260200191505b50848103835286518152865160209182019188019080838360005b8381101561053457818101518382015260200161051c565b50505050905090810190601f1680156105615780820380516001836020036101000a031916815260200191505b508481038252855181528551602091820191808801910280838360005b8381101561059657818101518382015260200161057e565b50505050905001965050505050505060405180910390f35b3480156105ba57600080fd5b5061033b60043560243560443561138b565b3480156105d857600080fd5b506102f360043561139b565b3480156105f057600080fd5b5061033b6004803590602480359081019101356113b0565b34801561061457600080fd5b50610620600435611528565b60405180806020018060200180602001848103845287818151815260200191508051906020019060200280838360005b83811015610668578181015183820152602001610650565b50505050905001848103835286818151815260200191508051906020019060200280838360005b838110156106a757818101518382015260200161068f565b50505050905001848103825285818151815260200191508051906020019060200280838360008381101561059657818101518382015260200161057e565b3480156106f157600080fd5b5061033b600435602435611759565b34801561070c57600080fd5b5061033b600160a060020a036004351660243560443561177e565b34801561073357600080fd5b5061033b60043561185b565b34801561074b57600080fd5b5061035261187e565b34801561076057600080fd5b5061033b6004356024356118a9565b34801561077b57600080fd5b506102f36004356118b5565b34801561079357600080fd5b5061033b6004356118da565b3480156107ab57600080fd5b506102f3600160a060020a0360043516611a2a565b3480156107cc57600080fd5b50610352611a30565b3480156107e157600080fd5b50610352611a42565b3480156107f657600080fd5b50610352611a6d565b34801561080b57600080fd5b506103526024600480358281019291013590600160a060020a03903516611a86565b34801561083957600080fd5b50610352611c77565b34801561084e57600080fd5b50610352611ca2565b34801561086357600080fd5b50610352600435611ccd565b34801561087b57600080fd5b5061033b600435611d1c565b34801561089357600080fd5b50610352611d33565b3480156108a857600080fd5b5061033b611d45565b3480156108bd57600080fd5b5061033b600435611d7f565b3480156108d557600080fd5b5061033b600435600160a060020a0360243516611e32565b3480156108f957600080fd5b5061090a6004356024351515611efe565b604080518815158152600160a060020a0387169181019190915267ffffffffffffffff8086166060830152848116608083015283811660a0830152821660c082015260e0602080830182815289519284019290925288516101008401918a019080838360005b83811015610988578181015183820152602001610970565b50505050905090810190601f1680156109b55780820380516001836020036101000a031916815260200191505b509850505050505050505060405180910390f35b3480156109d557600080fd5b5061033b600160a060020a0360043516602435604435612051565b3480156109fc57600080fd5b50610a05612278565b60408051938452602084019290925282820152519081900360600190f35b348015610a2f57600080fd5b5061033b60246004803582810192908201359181359182019101356122d2565b348015610a5b57600080fd5b5061033b602460048035828101929082013591813591820191013561236b565b348015610a8757600080fd5b5061033b600160a060020a03600435166123ed565b348015610aa857600080fd5b5060408051602060046044358181013583810280860185019096528085526102f3958335600160a060020a031695602480359636969560649593949201929182918501908490808284375094975061267c9650505050505050565b348015610b0f57600080fd5b5061033b6004356024356127c9565b348015610b2a57600080fd5b506103bd6127f3565b348015610b3f57600080fd5b506103526128a8565b348015610b5457600080fd5b5061033b60043560243515156044356128d3565b348015610b7457600080fd5b5061033b60043567ffffffffffffffff602435166129b7565b348015610b9957600080fd5b50610ba5600435612adc565b6040805198151589526020890197909752878701959095526060870193909352608086019190915260a085015260c084015260e083015251908190036101000190f35b348015610bf457600080fd5b50610c03600435602435612b9a565b60405180806020018060200184151515158152602001838103835286818151815260200191508051906020019080838360005b83811015610c4e578181015183820152602001610c36565b50505050905090810190601f168015610c7b5780820380516001836020036101000a031916815260200191505b50838103825285518152855160209182019187019080838360005b83811015610cae578181015183820152602001610c96565b50505050905090810190601f168015610cdb5780820380516001836020036101000a031916815260200191505b509550505050505060405180910390f35b348015610cf857600080fd5b50610352612bd8565b348015610d0d57600080fd5b50610d25600480359060248035908101910135612bdd565b604051808060200180602001838103835285818151815260200191508051906020019080838360005b83811015610d66578181015183820152602001610d4e565b50505050905090810190601f168015610d935780820380516001836020036101000a031916815260200191505b50838103825284518152845160209182019186019080838360005b83811015610dc6578181015183820152602001610dae565b50505050905090810190601f168015610df35780820380516001836020036101000a031916815260200191505b5094505050505060405180910390f35b348015610e0f57600080fd5b50610352612cab565b348015610e2457600080fd5b506103bd612cd6565b348015610e3957600080fd5b506103bd612d01565b348015610e4e57600080fd5b50610352612d2c565b348015610e6357600080fd5b50610352600435612d50565b348015610e7b57600080fd5b506102f3612d7f565b348015610e9057600080fd5b50610352612d92565b348015610ea557600080fd5b5061033b612d9a565b348015610eba57600080fd5b50610352612db9565b348015610ecf57600080fd5b5061033b600435602435604435612dbe565b348015610eed57600080fd5b50610352612dfc565b348015610f0257600080fd5b506102f3600435612e20565b600080610f19611ca2565b90508015801590610f31575080610f2e612e5f565b10155b91505b5090565b610fa1868686868080601f0160208091040260200160405190810160405280939291908181526020018383808284375050604080516020601f8c018190048102820181019092528a815294508a9350899250829150840183828082843750612e63945050505050565b505050505050565b6000610fd47fbacf4236659a602d72c631ba0b0d67ec320aaf523f3ae3590d7faee4f42351d0612f7c565b90505b90565b6000610fe46127f3565b600160a060020a03166304bf2a7f836040518263ffffffff1660e01b81526004018080602001828103825283818151815260200191508051906020019080838360005b8381101561103f578181015183820152602001611027565b50505050905090810190601f16801561106c5780820380516001836020036101000a031916815260200191505b5092505050602060405180830381600087803b15801561108b57600080fd5b505af115801561109f573d6000803e3d6000fd5b505050506040513d60208110156110b557600080fd5b505192915050565b60006110c76159f9565b6110d083612f80565b90506110db81612fac565b1580156110f757506110f481600263ffffffff612ff116565b15155b151561114d576040805160e560020a62461bcd02815260206004820152601260248201527f43414e545f434c4541525f50454e414c54590000000000000000000000000000604482015290519081900360640190fd5b611160816002600063ffffffff61300916565b61116a8382613090565b611173836130a9565b61117b613120565b50919050565b600061118b612cd6565b600160a060020a03166332f0a3b56040518163ffffffff1660e01b8152600401602060405180830381600087803b1580156111c557600080fd5b505af11580156111d9573d6000803e3d6000fd5b505050506040513d60208110156111ef57600080fd5b5051905090565b60606000806112036128a8565b91508185101580611212575083155b1561121c57611285565b611228848684036131e9565b604051908082528060200260200182016040528015611251578160200160208202803883390190505b509250600090505b825181101561128557808501838281518110151561127357fe5b60209081029091010152600101611259565b505092915050565b606080606061129a6159f9565b6000806112a6896131ff565b6112af89613211565b92506112dc6112c584600263ffffffff612ff116565b6112d58a8a63ffffffff61323d16565b11156132d7565b6112ed83600363ffffffff612ff116565b91506112f88761332e565b604080518a81526020808c028201019091529197509550878015611326578160200160208202803883390190505b50935061134d600080516020615b1a8339815191528a8a8a8a8a600063ffffffff6133b916565b8681101561137f578181890110848281518110151561136857fe5b91151560209283029091019091015260010161134d565b50505093509350939050565b611396838383613430565b505050565b60009081526020819052604090205460ff1690565b6113e982828080601f016020809104026020016040519081016040528093929190818152602001838380828437506135a4945050505050565b6113f2836131ff565b611409600080516020615a9a83398151915261360d565b6114b5828260405180838380828437820191505092505050604051809103902060001916600080868152602001908152602001600020600101604051808280546001816001161561010002031660029004801561149d5780601f1061147b57610100808354040283529182019161149d565b820191906000526020600020905b815481529060010190602001808311611489575b5050915050604051809103902060001916141561364b565b60008381526020819052604090206114d1906001018383615a0b565b50827fcb16868f4831cc58a28d413f658752a2958bd1f50e94ed6391716b936c48093b83836040518080602001828103825284848281815260200192508082843760405192018290039550909350505050a2505050565b606080606060008060008061153b6159f9565b6000806000806115496128a8565b9850611553611a6d565b97508760405190808252806020026020018201604052801561157f578160200160208202803883390190505b509b50876040519080825280602002602001820160405280156115ac578160200160208202803883390190505b509a50876040519080825280602002602001820160405280156115d9578160200160208202803883390190505b50995060009650600095505b888410156116da576115f68461139b565b1515611601576116cf565b61160a84613211565b945061161d85600163ffffffff612ff116565b925061163085600363ffffffff612ff116565b91508282101561163c57fe5b506000838152602081905260409020548b5183830396870196916101009004600160a060020a0316908d908990811061167157fe5b600160a060020a039092166020928302909101909101528a5181908c908990811061169857fe5b602090810290910101526116ab846118b5565b8a888151811015156116b957fe5b9115156020928302909101909101526001909601955b8360010193506115e5565b8515156116e657611749565b600096505b87871015611749578561171c8e8d8a81518110151561170657fe5b602090810290910101519063ffffffff6136a216565b81151561172557fe5b048b8881518110151561173457fe5b602090810290910101526001909601956116eb565b5050505050505050509193909250565b611770600080516020615a9a83398151915261360d565b61177a828261374d565b5050565b611786611ca2565b60408051808201909152601881527f494e49545f414c52454144595f494e495449414c495a45440000000000000000602082015290156118475760405160e560020a62461bcd0281526004018080602001828103825283818151815260200191508051906020019080838360005b8381101561180c5781810151838201526020016117f4565b50505050905090810190601f1680156118395780820380516001836020036101000a031916815260200191505b509250505060405180910390fd5b506118538383836138f0565b611396613b40565b611872600080516020615a9a83398151915261360d565b61187b81613c08565b50565b6000610fd47f8e3a1f3826a82c1116044b334cae49f3c3d12c3866a1c4b18af461e12e58a18e612f7c565b61177a82826001613430565b60006118bf6159f9565b6118c883612f80565b90506118d381612fac565b9392505050565b60006118e46159f9565b6000806118f0856131ff565b611907600080516020615a9a83398151915261360d565b6119186119138661139b565b613c82565b611920611a6d565b935061195161193685600163ffffffff613cd916565b600080516020615aba8339815191529063ffffffff613d6d16565b600085815260208181526040808320805460ff1916905580519283525187927fecdf08e8a6c4493efb460f6abc7d14532074fa339c3a6410623a1d3ee0fb2cac92908290030190a26119a285613211565b92506119b583600063ffffffff612ff116565b91506119c883600363ffffffff612ff116565b905080821115611a1b576119e48360008363ffffffff61300916565b6119ee8584613d71565b6040805182815290518691600080516020615afa833981519152919081900360200190a2611a1b856130a9565b611a23613120565b5050505050565b50600190565b600080516020615ada83398151915281565b6000610fd47fd625496217aa6a3453eecb9c3489dc5a53e6c67b444329ea2b2cbc9ff547639b612f7c565b6000610fd4600080516020615aba833981519152612f7c565b6000806000611ac486868080601f016020809104026020016040519081016040528093929190818152602001838380828437506135a4945050505050565b611acd84613d8a565b611ae4600080516020615a9a83398151915261360d565b611aec6128a8565b925060c88310611b46576040805160e560020a62461bcd02815260206004820152601c60248201527f4d41585f4f50455241544f52535f434f554e545f455843454544454400000000604482015290519081900360640190fd5b611b797fe2a589ae0816b289a9d29b7c085f8eba4b5525accca9fa8ff4dba3f5a41287e86001850163ffffffff613d6d16565b60008381526020819052604090209150611b91611a6d565b9050611bb4600080516020615aba8339815191526001830163ffffffff613d6d16565b815460ff191660019081178355611bce9083018787615a0b565b50815474ffffffffffffffffffffffffffffffffffffffff001916610100600160a060020a03861690810291909117835560408051858152908101919091526000606082018190526080602083018181529083018890527fc52ec0ad7872dae440d886040390c13677df7bf3cca136d8d81e5e5e7dd62ff19286928a928a928a929160a0820186868082843760405192018290039850909650505050505050a150509392505050565b6000610fd47f4dd0f6662ba1d6b081f08b350f5e9a6a7b15cf586926ba66f753594928fa64a6612f7c565b6000610fd47febb05b386a8d34882b8711d156f463690983dc47815980fb82aeeff1aa43579e612f7c565b6000611cd76159f9565b611ce0836131ff565b611ce983613211565b90506118d3611cff82600363ffffffff612ff116565b611d1083600263ffffffff612ff116565b9063ffffffff613cd916565b61187b600080516020615ada83398151915261360d565b600080516020615a9a83398151915281565b6000611d5e600080516020615ada83398151915261360d565b611d666128a8565b9050600081111561187b5761187b60006001830361374d565b611d88816131ff565b611d9f600080516020615a9a83398151915261360d565b611db1611dab8261139b565b15613c82565b611dda611dbc611a6d565b600080516020615aba8339815191529060010163ffffffff613d6d16565b60008181526020818152604091829020805460ff191660019081179091558251908152915183927fecdf08e8a6c4493efb460f6abc7d14532074fa339c3a6410623a1d3ee0fb2cac92908290030190a261187b613120565b611e3b81613d8a565b611e44826131ff565b611e5b600080516020615a9a83398151915261360d565b600082815260208190526040902054611e8790600160a060020a0383811661010090920416141561364b565b60008281526020818152604091829020805474ffffffffffffffffffffffffffffffffffffffff001916610100600160a060020a038616908102919091179091558251908152915184927f9a52205165d510fc1e428886d52108725dc01ed544da1702dc7bd3fdb3f243b292908290030190a25050565b60006060600080600080600080611f136159f9565b611f1c8b6131ff565b60008b8152602081905260409020805460ff81169a506101009004600160a060020a03169750915089611f5d57604080516020810190915260008152611fea565b60018281018054604080516020600295841615610100026000190190931694909404601f810183900483028501830190915280845290830182828015611fe45780601f10611fb957610100808354040283529160200191611fe4565b820191906000526020600020905b815481529060010190602001808311611fc757829003601f168201915b50505050505b9750611ff58b613211565b905061200881600063ffffffff612ff116565b955061201b81600163ffffffff612ff116565b945061202e81600263ffffffff612ff116565b935061204181600363ffffffff612ff116565b9250505092959891949750929550565b600061205b6159f9565b6120636159f9565b61206b6159f9565b600080600080600061207b610f0e565b15156120d1576040805160e560020a62461bcd02815260206004820152601860248201527f434f4e54524143545f4e4f545f494e495449414c495a45440000000000000000604482015290519081900360640190fd5b6120db6000613e64565b6120e68c8c8c6138f0565b6120ee6128a8565b9850602060405190810160405280600081525095505b888210156122595761211582613211565b975061212888600063ffffffff612ff116565b945061213b88600263ffffffff612ff116565b935061214e88600363ffffffff612ff116565b60008381526020819052604090205490935060ff161515612170575081612186565b6121838461217e8588613ec2565b6131e9565b90505b8481146121ce5761219f8860008363ffffffff61300916565b6121a98289613d71565b6040805182815290518391600080516020615afa833981519152919081900360200190a25b6121d782613ed1565b96506121eb8760028363ffffffff61300916565b6121f58288613efd565b6122078660008363ffffffff613f1616565b6122198660038563ffffffff613f1616565b61223c600161222e8a8263ffffffff612ff116565b88919063ffffffff613f1616565b61224e8660028663ffffffff613f1616565b816001019150612104565b61226286613f3a565b61226a613120565b505050505050505050505050565b60008060006122856159f9565b61228d613f40565b90506122a081600163ffffffff612ff116565b93506122b381600363ffffffff612ff116565b92506122ca83611d1083600063ffffffff612ff116565b915050909192565b60008080808080806122f1600080516020615ada83398151915261360d565b6122fb8a89613f5c565b96506123056128a8565b95506024600435019250602480350191505b86811015612356576008810283013560c01c94506010810282013560801c93506001016123458686106132d7565b61235185856000613fd6565b612317565b61235e613120565b5050505050505050505050565b600080808080808061238a600080516020615ada83398151915261360d565b6123948a89613f5c565b965061239e6128a8565b95506024600435019250602480350191505b86811015612356576008810283013560c01c94506010810282013560801c93506001016123de8686106132d7565b6123e88585614191565b6123b0565b60008060006123fb84611a2a565b60408051808201909152601281527f5245434f5645525f444953414c4c4f574544000000000000000000000000000060208201529015156124815760405160e560020a62461bcd0281526004018080602001828103825283818151815260200191508051906020019080838360008381101561180c5781810151838201526020016117f4565b5061248a611181565b9250612495836142e1565b60408051808201909152601a81527f5245434f5645525f5641554c545f4e4f545f434f4e5452414354000000000000602082015290151561251b5760405160e560020a62461bcd0281526004018080602001828103825283818151815260200191508051906020019080838360008381101561180c5781810151838201526020016117f4565b50600160a060020a038416151561256c5760405130319250600160a060020a0384169083156108fc029084906000818181858888f19350505050158015612566573d6000803e3d6000fd5b5061262b565b5082612587600160a060020a0382163063ffffffff61430716565b91506125a3600160a060020a038216848463ffffffff61441c16565b60408051808201909152601d81527f5245434f5645525f544f4b454e5f5452414e534645525f4641494c454400000060208201529015156126295760405160e560020a62461bcd0281526004018080602001828103825283818151815260200191508051906020019080838360008381101561180c5781810151838201526020016117f4565b505b83600160a060020a031683600160a060020a03167f596caf56044b55fb8c4ca640089bbc2b63cae3e978b851f5745cbb7c5b288e02846040518082815260200191505060405180910390a350505050565b600080612687610f0e565b151561269657600091506127c1565b61269e612cd6565b9050600160a060020a03811615156126b957600091506127c1565b80600160a060020a031663fdef91068630876126d4886144a7565b60405163ffffffff861660e01b8152600160a060020a03808616600483019081529085166024830152604482018490526080606483019081528351608484015283519192909160a490910190602085019080838360005b8381101561274357818101518382015260200161272b565b50505050905090810190601f1680156127705780820380516001836020036101000a031916815260200191505b5095505050505050602060405180830381600087803b15801561279257600080fd5b505af11580156127a6573d6000803e3d6000fd5b505050506040513d60208110156127bc57600080fd5b505191505b509392505050565b6127d2826131ff565b6127e9600080516020615ada83398151915261360d565b61177a82826144b1565b6000806127fe612cd6565b604080517fbe00bbd80000000000000000000000000000000000000000000000000000000081527fd6f028ca0e8edb4a8c9757ca4fdccab25fa1e0317da1188108f7d2dee14902fb60048201527fddbcfd564f642ab5627cf68b9b7d374fb4f8a36e941a75d89c87998cef03bd6160248201529051600160a060020a03929092169163be00bbd8916044808201926020929091908290030181600087803b15801561108b57600080fd5b6000610fd47fe2a589ae0816b289a9d29b7c085f8eba4b5525accca9fa8ff4dba3f5a41287e8612f7c565b6128db6159f9565b6128e4846131ff565b6128fb600080516020615ada83398151915261360d565b61290f67ffffffffffffffff8311156132d7565b61291884613ed1565b905061293f60008461292b57600061292e565b60015b83919060ff1663ffffffff61300916565b612960600184612950576000612952565b835b83919063ffffffff61300916565b61296a8482613efd565b60408051838152905185917fd50ea115db6f0b433ef9cc4b71110dbd9202364a00488be90718990be5bf16a6919081900360200190a26129a9846130a9565b6129b1613120565b50505050565b6129bf6159f9565b6000806000806129ce876131ff565b612a0b7f07b39e0faf2521001ae4e58cb9ffd3840a63e205d288dc9c93c3774f0d794754612a068967ffffffffffffffff8a166145d2565b61462d565b612a176119138861139b565b612a2087613211565b9450612a3385600063ffffffff612ff116565b9350612a4685600363ffffffff612ff116565b9250612a5985600263ffffffff612ff116565b9150612a738261217e8867ffffffffffffffff1686613ec2565b905083811415612a8257612ad3565b612a948560008363ffffffff61300916565b612a9e8786613d71565b6040805182815290518891600080516020615afa833981519152919081900360200190a2612acb876130a9565b612ad3613120565b50505050505050565b600080600080600080600080612af06159f9565b612af86159f9565b612b018b6131ff565b612b0a8b613ed1565b9150612b158b612f80565b9050612b2882600063ffffffff612ff116565b15159950612b3d82600163ffffffff612ff116565b9850612b5081600063ffffffff612ff116565b9750612b6381600163ffffffff612ff116565b9650612b7681600263ffffffff612ff116565b9550612b818b61463b565b8095508196508297505050505050919395975091939597565b60608060006060612bad8686600161128d565b8051929650909450915081906000908110612bc457fe5b906020019060200201519150509250925092565b60ff81565b60608060008180612bfb600080516020615ada83398151915261360d565b871515612c21576040805160008082526020820190815281830190925295509350612ca0565b612c2a8861465b565b91945092509050878314612c88576040805160e560020a62461bcd02815260206004820152601c60248201527f494e56414c49445f414c4c4f43415445445f4b4559535f434f554e5400000000604482015290519081900360640190fd5b612c938383836147ed565b9095509350612ca0613120565b505050935093915050565b6000610fd47fcd91478ac3f2620f0776eacb9c24123a214bcb23c32ae7d28278aa846c8c380e612f7c565b6000610fd47f4172f0f7d2289153072b0a6ca36959e0cbe2efc3afe50fc81636caa96338137b612f7c565b6000610fd47ffb2059fd4b64256b64068a0f57046c6d40b9f0e592ba8bcfdf5b941910d03537612f7c565b7f07b39e0faf2521001ae4e58cb9ffd3840a63e205d288dc9c93c3774f0d79475481565b6000612d5a6159f9565b612d63836131ff565b612d6c83613211565b90506118d381600263ffffffff612ff116565b6000600019612d8c611ca2565b14905090565b6301e1338081565b612db1600080516020615ada83398151915261360d565b61187b6149c9565b60c881565b612dc7836131ff565b612dde600080516020615ada83398151915261360d565b612de88382614191565b612df483836001613fd6565b611396613120565b7f75abc64490e17b40ea1e66691c3eb493647b24430b358bd87ec3e5127f1621ee81565b6000612e2a6159f9565b612e3383612f80565b9050612e3e81612fac565b1580156118d35750612e5781600263ffffffff612ff116565b159392505050565b4390565b612e6b6159f9565b6000612e756159f9565b612e7e876131ff565b612e883388614e59565b612ea78615801590612ea2575067ffffffffffffffff8711155b6132d7565b612eb087613211565b9250612ec383600263ffffffff612ff116565b9150612ee167ffffffffffffffff6112d5848963ffffffff61323d16565b612f03600080516020615b1a833981519152888489898963ffffffff614ec616565b60408051828152905191935088917fdd01838a366ae4dc9a86e1922512c0716abebc9a440baae0e22d2dec578223f09181900360200190a2612f4d8360028463ffffffff61300916565b612f578784613d71565b612f5f613f40565b9050612f738160028863ffffffff613f1616565b612acb81613f3a565b5490565b612f886159f9565b50600090815260208181526040918290208251918201909252600390910154815290565b6000612fbe828263ffffffff612ff116565b612fcf83600163ffffffff612ff116565b1080612feb5750612fe782600263ffffffff612ff116565b4211155b92915050565b905167ffffffffffffffff604090920260ff161c1690565b67ffffffffffffffff811115613069576040805160e560020a62461bcd02815260206004820152600f60248201527f5041434b45445f4f564552464c4f570000000000000000000000000000000000604482015290519081900360640190fd5b825167ffffffffffffffff91821660409390930260ff1692831b9190921b19909116179052565b6000918252602082905260409091209051600390910155565b6000806130b46159f9565b60006130bf85615179565b93509350838314156130d057611a23565b6130d8613f40565b91506130e4838561526d565b905083831115613105576131008260008363ffffffff613f1616565b613117565b6131178260008363ffffffff61528416565b611a2382613f3a565b600061314b7fcd91478ac3f2620f0776eacb9c24123a214bcb23c32ae7d28278aa846c8c380e612f7c565b60010190506131807fcd91478ac3f2620f0776eacb9c24123a214bcb23c32ae7d28278aa846c8c380e8263ffffffff613d6d16565b6040805182815290517ffb992daec9d46d64898e3a9336d02811349df6cbea8b95d4deb2fa6c7b454f0d9181900360200190a16040805182815290517f7220970e1f1f12864ecccd8942690a837c7a8dd45d158cb891eb45a8a69134aa9181900360200190a150565b60008183106131f857816118d3565b5090919050565b61187b61320a6128a8565b82106132d7565b6132196159f9565b50600090815260208181526040918290208251918201909252600290910154815290565b60408051808201909152601181527f4d4154485f4144445f4f564552464c4f57000000000000000000000000000000602082015260009083830190848210156132cb5760405160e560020a62461bcd0281526004018080602001828103825283818151815260200191508051906020019080838360008381101561180c5781810151838201526020016117f4565b508091505b5092915050565b80151561187b576040805160e560020a62461bcd02815260206004820152600c60248201527f4f55545f4f465f52414e47450000000000000000000000000000000000000000604482015290519081900360640190fd5b60608061334283603063ffffffff6136a216565b6040519080825280601f01601f19166020018201604052801561336f578160200160208202803883390190505b5061338184606063ffffffff6136a216565b6040519080825280601f01601f1916602001820160405280156133ae578160200160208202803883390190505b509092509050915091565b6000805b85811015613425576133d8898989840163ffffffff61529716565b60018082015460801c85840160308181028a0190810192909252835460209283015260028401546060918202890192830152600384015460408301526004840154910152909250016133bd565b505050505050505050565b6134386159f9565b6000806134436159f9565b61344c876131ff565b6134563388614e59565b84151561346257612ad3565b61346b87613211565b935061347e84600263ffffffff612ff116565b92506134af61349485600363ffffffff612ff116565b8710158015612ea25750836112d5888863ffffffff61323d16565b6134d0600080516020615b1a8339815191528888888763ffffffff61532a16565b92506134e48460028563ffffffff61300916565b60408051848152905188917fdd01838a366ae4dc9a86e1922512c0716abebc9a440baae0e22d2dec578223f0919081900360200190a261352b84600063ffffffff612ff116565b91508186101561356c576135478460008863ffffffff61300916565b6040805187815290518891600080516020615afa833981519152919081900360200190a25b6135768785613d71565b61357e613f40565b90506135928160028763ffffffff61528416565b61359b81613f3a565b612acb876130a9565b600081511180156135b7575060ff815111155b151561187b576040805160e560020a62461bcd02815260206004820152601160248201527f57524f4e475f4e414d455f4c454e475448000000000000000000000000000000604482015290519081900360640190fd5b61187b61364633836000604051908082528060200260200182016040528015613640578160200160208202803883390190505b5061267c565b615533565b80151561187b576040805160e560020a62461bcd02815260206004820152601160248201527f56414c55455f49535f5448455f53414d45000000000000000000000000000000604482015290519081900360640190fd5b6000808315156136b557600091506132d0565b508282028284828115156136c557fe5b60408051808201909152601181527f4d4154485f4d554c5f4f564552464c4f57000000000000000000000000000000602082015292919004146132cb5760405160e560020a62461bcd0281526004018080602001828103825283818151815260200191508051906020019080838360008381101561180c5781810151838201526020016117f4565b60008060008061375b6159f9565b60006137656159f9565b613782888a11158015612ea2575061377b6128a8565b89106132d7565b8891505b8782116138ba5761379682613211565b92506137a983600263ffffffff612ff116565b94506137bc83600363ffffffff612ff116565b9350838514156137cb576138af565b8385116137d457fe5b8385039650948601946137ef8360028663ffffffff61300916565b6138018360008663ffffffff61300916565b61380b8284613d71565b613814826130a9565b60408051858152905183917fdd01838a366ae4dc9a86e1922512c0716abebc9a440baae0e22d2dec578223f0919081900360200190a26040805185815290518391600080516020615afa833981519152919081900360200190a26040805167ffffffffffffffff89168152905183917f9824694569ba758f8872bb150515caaf8f1e2cc27e6805679c4ac8c3b9b83d87919081900360200190a25b816001019150613786565b6000861115613425576138cb613f40565b90506138df8160028863ffffffff61528416565b6138e881613f3a565b613425613120565b6138f98361558a565b6139297ffb2059fd4b64256b64068a0f57046c6d40b9f0e592ba8bcfdf5b941910d035378463ffffffff613d6d16565b6139597fbacf4236659a602d72c631ba0b0d67ec320aaf523f3ae3590d7faee4f42351d08363ffffffff613d6d16565b61396360026155ea565b61396c81613c08565b613974612d01565b600160a060020a03166323509a2d6040518163ffffffff1660e01b8152600401602060405180830381600087803b1580156139ae57600080fd5b505af11580156139c2573d6000803e3d6000fd5b505050506040513d60208110156139d857600080fd5b5051600160a060020a031663095ea7b36139f0612d01565b600160a060020a03166327810b6e6040518163ffffffff1660e01b8152600401602060405180830381600087803b158015613a2a57600080fd5b505af1158015613a3e573d6000803e3d6000fd5b505050506040513d6020811015613a5457600080fd5b50516040805163ffffffff841660e01b8152600160a060020a03909216600483015260001960248301525160448083019260209291908290030181600087803b158015613aa057600080fd5b505af1158015613ab4573d6000803e3d6000fd5b505050506040513d6020811015613aca57600080fd5b505060408051600160a060020a038516815290517fa44aa4b7320163340e971b1f22f153bbb8a0151d783bd58377018ea5bc96d0c99181900360200190a16040805183815290517fdb042010b15d1321c99552200b350bba0a95dfa3d0b43869983ce74b44d644ee9181900360200190a1505050565b613b48611ca2565b60408051808201909152601881527f494e49545f414c52454144595f494e495449414c495a4544000000000000000060208201529015613bcd5760405160e560020a62461bcd0281526004018080602001828103825283818151815260200191508051906020019080838360008381101561180c5781810151838201526020016117f4565b50613c06613bd9612e5f565b7febb05b386a8d34882b8711d156f463690983dc47815980fb82aeeff1aa43579e9063ffffffff613d6d16565b565b613c186301e133808211156132d7565b613c487f8e3a1f3826a82c1116044b334cae49f3c3d12c3866a1c4b18af461e12e58a18e8263ffffffff613d6d16565b6040805182815290517f4cccd9748bff0341d9852cc61d82652a3003dcebea088f05388c0be1f26b4c8a9181900360200190a150565b5490565b80151561187b576040805160e560020a62461bcd02815260206004820152601b60248201527f57524f4e475f4f50455241544f525f4143544956455f53544154450000000000604482015290519081900360640190fd5b60408051808201909152601281527f4d4154485f5355425f554e444552464c4f5700000000000000000000000000006020820152600090819084841115613d655760405160e560020a62461bcd0281526004018080602001828103825283818151815260200191508051906020019080838360008381101561180c5781810151838201526020016117f4565b505050900390565b9055565b6000918252602082905260409091209051600290910155565b613d938161558a565b613d9b612d01565b600160a060020a03166323509a2d6040518163ffffffff1660e01b8152600401602060405180830381600087803b158015613dd557600080fd5b505af1158015613de9573d6000803e3d6000fd5b505050506040513d6020811015613dff57600080fd5b5051600160a060020a038281169116141561187b576040805160e560020a62461bcd02815260206004820152601360248201527f4c49444f5f5245574152445f4144445245535300000000000000000000000000604482015290519081900360640190fd5b613e6c611c77565b811461187b576040805160e560020a62461bcd02815260206004820152601b60248201527f554e45585045435445445f434f4e54524143545f56455253494f4e0000000000604482015290519081900360640190fd5b60008183116131f857816118d3565b613ed96159f9565b50600090815260208181526040918290208251918201909252600490910154815290565b6000918252602082905260409091209051600490910155565b6113968383613f3584613f298888612ff1565b9063ffffffff61323d16565b613009565b51600155565b613f486159f9565b506040805160208101909152600154815290565b600882046010820481148015613f73575060088306155b8015613f80575060108206155b1515612feb576040805160e560020a62461bcd02815260206004820152601360248201527f494e56414c49445f5245504f52545f4441544100000000000000000000000000604482015290519081900360640190fd5b613fde6159f9565b6000806000613feb6159f9565b6000613ff689613211565b955061400986600163ffffffff612ff116565b94508488141561401857613425565b868061402357508488115b151561409f576040805160e560020a62461bcd02815260206004820152602160248201527f4558495445445f56414c494441544f52535f434f554e545f444543524541534560448201527f4400000000000000000000000000000000000000000000000000000000000000606482015290519081900360840190fd5b6140b086600363ffffffff612ff116565b93506140cc60006140c08b612f80565b9063ffffffff612ff116565b9250828410156140d857fe5b6140e68385038911156132d7565b6140f88660018a63ffffffff61300916565b6141028987613d71565b6040805189815290518a917f0f67960648751434ae86bf350db61194f387fda387e7f568b0ccd0ae0c220166919081900360200190a2614140613f40565b915061414c888661526d565b90508488111561416d576141688260018363ffffffff613f1616565b61417f565b61417f8260018363ffffffff61528416565b61418882613f3a565b613425896130a9565b6141996159f9565b60006141a36159f9565b60008060006141b188612f80565b95506141c486600063ffffffff612ff116565b9450848714156141d3576142d7565b6141dc88613211565b93506141ef84600163ffffffff612ff116565b925061420284600363ffffffff612ff116565b91508282101561420e57fe5b61421c8383038811156132d7565b61422d86600163ffffffff612ff116565b905080871115801561423e57508085115b1561426057614260600261425061187e565b889190420163ffffffff61300916565b6142728660008963ffffffff61300916565b61427c8887613090565b877f0ee42dd52dd2b8feb0fc9cc054a08162a23e022c177319db981cf339e5b8ffdb88836142b18a600263ffffffff612ff116565b60408051938452602084019290925282820152519081900360600190a26142d7886130a9565b5050505050505050565b600080600160a060020a03831615156142fd576000915061117b565b50506000903b1190565b60408051600160a060020a0383166024808301919091528251808303909101815260449091019091526020810180517bffffffffffffffffffffffffffffffffffffffffffffffffffffffff167f70a082310000000000000000000000000000000000000000000000000000000017905260009081806143878684615650565b60408051808201909152601c81527f534146455f4552435f32305f42414c414e43455f524556455254454400000000602082015291935091508215156144125760405160e560020a62461bcd0281526004018080602001828103825283818151815260200191508051906020019080838360008381101561180c5781810151838201526020016117f4565b5095945050505050565b60408051600160a060020a038416602482015260448082018490528251808303909101815260649091019091526020810180517bffffffffffffffffffffffffffffffffffffffffffffffffffffffff167fa9059cbb0000000000000000000000000000000000000000000000000000000017905260009061449e8582615681565b95945050505050565b8051602002815290565b6144b96159f9565b60006144c36159f9565b60006144ce86612f80565b93506144e184600163ffffffff612ff116565b9250828514156144f057610fa1565b6144f986613211565b915061451761450f83600363ffffffff612ff116565b8611156132d7565b61452884600063ffffffff612ff116565b905080851015801561453957508083105b1561455b5761455b600261454b61187e565b869190420163ffffffff61300916565b61456d8460018763ffffffff61300916565b6145778685613090565b857f0ee42dd52dd2b8feb0fc9cc054a08162a23e022c177319db981cf339e5b8ffdb82876145ac88600263ffffffff612ff116565b60408051938452602084019290925282820152519081900360600190a2610fa1866130a9565b60408051600280825260608083018452926020830190803883390190505090508281600081518110151561460257fe5b60209081029091010152805182908290600190811061461d57fe5b6020908102909101015292915050565b61177a61364633848461267c565b60008060008061464a856156cf565b919790965090869003945092505050565b600060608060006060600080600080600080614675611a6d565b9750876040519080825280602002602001820160405280156146a1578160200160208202803883390190505b509950876040519080825280602002602001820160405280156146ce578160200160208202803883390190505b509850876040519080825280602002602001820160405280156146fb578160200160208202803883390190505b5096506147066128a8565b94505b8481101561478d5761471a816156cf565b9550935091508284141561472d57614785565b808a8781518110151561473c57fe5b602090810290910101528851828403908a908890811061475857fe5b6020908102909101015286518285039088908890811061477457fe5b602090810290910101526001909501945b600101614709565b8515156147b557604080516000808252602082018181528284019093529c509a5098506147de565b878610156147c757858a528589528587525b6147d289888e615754565b9a508a8c10156147de57fe5b50505050505050509193909250565b6060806000806000806147fe6159f9565b60006148086159f9565b6148118c61332e565b9099509750600096505b8a5182101561498c576148448b8381518110151561483557fe5b90602001906020020151613211565b925061485783600363ffffffff612ff116565b9550898281518110151561486757fe5b6020908102909101015161488284600163ffffffff612ff116565b0194508585141561489257614981565b85851161489b57fe5b85850393506148db8b838151811015156148b157fe5b60209081029091010151600080516020615b1a8339815191529088878d8d8d63ffffffff6133b916565b8a51968401968b90839081106148ed57fe5b906020019060200201517f24eb1c9e765ba41accf9437300ea91ece5ed3f897ec3cdee0e9debd7fe309b78866040518082815260200191505060405180910390a26149408360038763ffffffff61300916565b6149618b8381518110151561495157fe5b9060200190602002015184613d71565b6149818b8381518110151561497257fe5b906020019060200201516130a9565b81600101915061481b565b868c1461499557fe5b61499d613f40565b90506149b18160038963ffffffff613f1616565b6149ba81613f3a565b50505050505050935093915050565b600080600060608060606000806149de612d01565b600160a060020a03166323509a2d6040518163ffffffff1660e01b8152600401602060405180830381600087803b158015614a1857600080fd5b505af1158015614a2c573d6000803e3d6000fd5b505050506040513d6020811015614a4257600080fd5b5051604080517ff5eb42dc0000000000000000000000000000000000000000000000000000000081523060048201529051919850600160a060020a0389169163f5eb42dc916024808201926020929091908290030181600087803b158015614aa957600080fd5b505af1158015614abd573d6000803e3d6000fd5b505050506040513d6020811015614ad357600080fd5b50519550851515614ae357614e4f565b614aec86611528565b9450945094505b8451811015614d565760028482815181101515614b0c57fe5b906020019060200201511015614b2157614d4e565b8281815181101515614b2f57fe5b9060200190602002015115614bf95760018482815181101515614b4e57fe5b602090810290910101805190911c90528351614b8790859083908110614b7057fe5b60209081029091010151839063ffffffff61323d16565b91508481815181101515614b9757fe5b90602001906020020151600160a060020a03167fe915a473fc2ef8e0231da98380f853b2aeea117a4392c67e753c54186bfbbd128583815181101515614bd957fe5b906020019060200201516040518082815260200191505060405180910390a25b86600160a060020a0316638fcb4e5b8683815181101515614c1657fe5b906020019060200201518684815181101515614c2e57fe5b906020019060200201516040518363ffffffff1660e01b81526004018083600160a060020a0316600160a060020a0316815260200182815260200192505050602060405180830381600087803b158015614c8757600080fd5b505af1158015614c9b573d6000803e3d6000fd5b505050506040513d6020811015614cb157600080fd5b50508351614cdc90859083908110614cc557fe5b60209081029091010151899063ffffffff61323d16565b97508481815181101515614cec57fe5b90602001906020020151600160a060020a03167fdf29796aad820e4bb192f3a8d631b76519bcd2cbe77cc85af20e9df53cece0868583815181101515614d2e57fe5b906020019060200201516040518082815260200191505060405180910390a25b600101614af3565b6000821115614e4f57614d67612d01565b600160a060020a03166327810b6e6040518163ffffffff1660e01b8152600401602060405180830381600087803b158015614da157600080fd5b505af1158015614db5573d6000803e3d6000fd5b505050506040513d6020811015614dcb57600080fd5b5051604080517f46114928000000000000000000000000000000000000000000000000000000008152306004820152602481018590529051600160a060020a039092169163461149289160448082019260009290919082900301818387803b158015614e3657600080fd5b505af1158015614e4a573d6000803e3d6000fd5b505050505b5050505050505090565b6000818152602081905260409020546101008104600160a060020a03908116908416149060ff166129b1828015614e8d5750815b806136465750613646857f75abc64490e17b40ea1e66691c3eb493647b24430b358bd87ec3e5127f1621ee614ec187615784565b61267c565b6000806000606060008088118015614ef5575067ffffffffffffffff614ef28a8a63ffffffff61323d16565b11155b1515614f4b576040805160e560020a62461bcd02815260206004820152601260248201527f494e56414c49445f4b4559535f434f554e540000000000000000000000000000604482015290519081900360640190fd5b614f5c88603063ffffffff6136a216565b8751148015614f7b5750614f7788606063ffffffff6136a216565b8651145b1515614fd1576040805160e560020a62461bcd02815260206004820152600f60248201527f4c454e4754485f4d49534d415443480000000000000000000000000000000000604482015290519081900360640190fd5b604080516030808252606082019092529060208201610600803883390190505091505b8781101561516a5761500d8b8b8b63ffffffff61529716565b60308281028901602081810151918301519286018390528501819052919550171592508215615086576040805160e560020a62461bcd02815260206004820152600960248201527f454d5054595f4b45590000000000000000000000000000000000000000000000604482015290519081900360640190fd5b60208201518455603082015160801b600185015560608102602087010180516002860155602081015160038601556040810151600486015560018201915060018a01995050897fc77a17d6b857abe6d6e6c37301621bc72c4dd52fa8830fb54dfa715c04911a89836040518080602001828103825283818151815260200191508051906020019080838360005b8381101561512b578181015183820152602001615113565b50505050905090810190601f1680156151585780820380516001836020036101000a031916815260200191505b509250505060405180910390a2614ff4565b50969998505050505050505050565b6000806151846159f9565b61518c6159f9565b600061519786613211565b92506151a286613ed1565b91506151b583600363ffffffff612ff116565b90506151c883600063ffffffff612ff116565b93506151d386612e20565b15156151e15780935061522f565b6151f282600063ffffffff612ff116565b1561522f5761522c816152278661521086600163ffffffff612ff116565b61522188600163ffffffff612ff116565b016131e9565b613ec2565b93505b61524082600263ffffffff612ff116565b94508385146152655761525b8260028663ffffffff61300916565b6152658683613efd565b505050915091565b600081831161527e578282036118d3565b50900390565b6113968383613f3584611d108888612ff1565b6040805160208082018690528183018590526060808301859052835180840390910181526080909201928390528151600093918291908401908083835b602083106152f35780518252601f1990920191602091820191016152d4565b5181516020939093036101000a6000190180199091169216919091179052604051920182900390912060001c979650505050505050565b60008060008060606000808811801561535257508661534f8a8a63ffffffff61323d16565b11155b8015615366575067ffffffffffffffff8711155b15156153bc576040805160e560020a62461bcd02815260206004820152601260248201527f494e56414c49445f4b4559535f434f554e540000000000000000000000000000604482015290519081900360640190fd5b60408051603080825260608201909252906020820161060080388339019050509150508787015b88811115615524576154008b8b600019840163ffffffff61529716565b9450600185015460801c6030830152845460208301528681101561545a576154338b8b6000198a0163ffffffff61529716565b9350600092505b600583101561545657828401548386015560018301925061543a565b8394505b600092505b60058310156154795760008386015560018301925061545f565b600187039650600181039050897fea4b75aaf57196f73d338cadf79ecd0a437902e2dd0d2c4c2cf3ea71b8ab27b9836040518080602001828103825283818151815260200191508051906020019080838360005b838110156154e55781810151838201526020016154cd565b50505050905090810190601f1680156155125780820380516001836020036101000a031916815260200191505b509250505060405180910390a26153e3565b50949998505050505050505050565b80151561187b576040805160e560020a62461bcd02815260206004820152600f60248201527f4150505f415554485f4641494c45440000000000000000000000000000000000604482015290519081900360640190fd5b600160a060020a038116151561187b576040805160e560020a62461bcd02815260206004820152600c60248201527f5a45524f5f414444524553530000000000000000000000000000000000000000604482015290519081900360640190fd5b61561a7f4dd0f6662ba1d6b081f08b350f5e9a6a7b15cf586926ba66f753594928fa64a68263ffffffff613d6d16565b6040805182815290517ffddcded6b4f4730c226821172046b48372d3cd963c159701ae1b7c3bcac541bb9181900360200190a150565b6000806000806040516020818751602089018a5afa9250600083111561567557805191505b50909590945092505050565b6000806040516020818551602087016000895af160008111156156c5573d80156156b257602081146156bb576156c3565b600193506156c3565b600183511493505b505b5090949350505050565b60008060006156dc6159f9565b6156e46159f9565b6156ed86613211565b91506156f886613ed1565b905061570b82600163ffffffff612ff116565b945061571e82600363ffffffff612ff116565b935061573181600263ffffffff612ff116565b92508383101580156157435750848410155b151561574b57fe5b50509193909250565b6000805b828210156127c15761576d85858486036157c5565b905080151561577b576127c1565b90810190615758565b60408051600180825281830190925260609160208083019080388339019050509050818160008151811015156157b657fe5b60209081029091010152919050565b8251600090600019828080808715156157e157600096506159c4565b600092505b895183101561589f5788838151811015156157fd57fe5b906020019060200201518a8481518110151561581557fe5b602090810290910101511061582957615894565b898381518110151561583757fe5b9060200190602002015185111561586e5782955060019350898381518110151561585d57fe5b906020019060200201519450615894565b898381518110151561587c57fe5b90602001906020020151851415615894576001840193505b8260010192506157e6565b8315156158af57600096506159c4565b50600019905060005b895181101561595f5788818151811015156158cf57fe5b906020019060200201518a828151811015156158e757fe5b60209081029091010151106158fb57615957565b848a8281518110151561590a57fe5b906020019060200201511180156159375750818a8281518110151561592b57fe5b90602001906020020151105b1561595757898181518110151561594a57fe5b9060200190602002015191505b6001016158b8565b6159a260018511615970578861597a565b61597a89866159d1565b8661599c858d8b81518110151561598d57fe5b906020019060200201516131e9565b036131e9565b9650868a878151811015156159b357fe5b602090810290910101805190910190525b5050505050509392505050565b600082156159f05781600184038115156159e757fe5b046001016118d3565b50600092915050565b60408051602081019091526000815290565b828054600181600116156101000203166002900490600052602060002090601f016020900481019282601f10615a4c5782800160ff19823516178555615a79565b82800160010185558215615a79579182015b82811115615a79578235825591602001919060010190615a5e565b50610f3492610fd79250905b80821115610f345760008155600101615a85560078523850fdd761612f46e844cf5a16bda6b3151d6ae961fd7e8e7b92bfbca7f86f5220989faafdc182d508d697678366f4e831f5f56166ad69bfc253fc548fb1bb75b874360e0bfd87f964eadd8276d8efb7c942134fc329b513032d0803e0c6947f955eec7e1f626bee3afd2aa47b5de04ddcdd3fe78dc8838213015ef58dfdeb2b7ad4d8ce5610cfb46470f03b14c197c2b751077c70209c5d0139f7c79ee9a165627a7a72305820bf20a504b74410da21261d54b7aa36b6dfc81a149a946f6b3f21461afbda35e50029ebb05b386a8d34882b8711d156f463690983dc47815980fb82aeeff1aa43579e",
    "linkReferences": {},
    "deployedLinkReferences": {}
}